{
  "abi": [
    {
      "inputs": [
        {
          "internalType": "uint256",
          "name": "minimum",
          "type": "uint256"
        },
        {
          "internalType": "address",
          "name": "creator",
          "type": "address"
        }
      ],
      "stateMutability": "nonpayable",
      "type": "constructor"
    },
    {
      "inputs": [
        {
          "internalType": "uint256",
          "name": "index",
          "type": "uint256"
        }
      ],
      "name": "approveRequest",
      "outputs": [],
      "stateMutability": "nonpayable",
      "type": "function"
    },
    {
      "inputs": [
        {
          "internalType": "address",
          "name": "",
          "type": "address"
        }
      ],
      "name": "approvers",
      "outputs": [
        {
          "internalType": "bool",
          "name": "",
          "type": "bool"
        }
      ],
      "stateMutability": "view",
      "type": "function"
    },
    {
      "inputs": [],
      "name": "approversCount",
      "outputs": [
        {
          "internalType": "uint256",
          "name": "",
          "type": "uint256"
        }
      ],
      "stateMutability": "view",
      "type": "function"
    },
    {
      "inputs": [],
      "name": "contribute",
      "outputs": [],
      "stateMutability": "payable",
      "type": "function"
    },
    {
      "inputs": [
        {
          "internalType": "string",
          "name": "description",
          "type": "string"
        },
        {
          "internalType": "uint256",
          "name": "value",
          "type": "uint256"
        },
        {
          "internalType": "address",
          "name": "recipient",
          "type": "address"
        }
      ],
      "name": "createRequest",
      "outputs": [],
      "stateMutability": "nonpayable",
      "type": "function"
    },
    {
      "inputs": [
        {
          "internalType": "uint256",
          "name": "index",
          "type": "uint256"
        }
      ],
      "name": "finalizeRequest",
      "outputs": [],
      "stateMutability": "nonpayable",
      "type": "function"
    },
    {
      "inputs": [],
      "name": "getRequestCount",
      "outputs": [
        {
          "internalType": "uint256",
          "name": "",
          "type": "uint256"
        }
      ],
      "stateMutability": "view",
      "type": "function"
    },
    {
      "inputs": [],
      "name": "getSummary",
      "outputs": [
        {
          "internalType": "uint256",
          "name": "",
          "type": "uint256"
        },
        {
          "internalType": "uint256",
          "name": "",
          "type": "uint256"
        },
        {
          "internalType": "uint256",
          "name": "",
          "type": "uint256"
        },
        {
          "internalType": "uint256",
          "name": "",
          "type": "uint256"
        },
        {
          "internalType": "address",
          "name": "",
          "type": "address"
        }
      ],
      "stateMutability": "view",
      "type": "function"
    },
    {
      "inputs": [],
      "name": "manager",
      "outputs": [
        {
          "internalType": "address",
          "name": "",
          "type": "address"
        }
      ],
      "stateMutability": "view",
      "type": "function"
    },
    {
      "inputs": [],
      "name": "minimumContribution",
      "outputs": [
        {
          "internalType": "uint256",
          "name": "",
          "type": "uint256"
        }
      ],
      "stateMutability": "view",
      "type": "function"
    },
    {
      "inputs": [
        {
          "internalType": "uint256",
          "name": "",
          "type": "uint256"
        }
      ],
      "name": "requests",
      "outputs": [
        {
          "internalType": "string",
          "name": "description",
          "type": "string"
        },
        {
          "internalType": "uint256",
          "name": "value",
          "type": "uint256"
        },
        {
          "internalType": "address",
          "name": "recipient",
          "type": "address"
        },
        {
          "internalType": "bool",
          "name": "complete",
          "type": "bool"
        },
        {
          "internalType": "uint256",
          "name": "approvalsCount",
          "type": "uint256"
        }
      ],
      "stateMutability": "view",
      "type": "function"
    }
  ],
  "devdoc": {
    "kind": "dev",
    "methods": {},
    "version": 1
  },
  "evm": {
    "assembly": "    /* \"Campaign.sol\":547:3678  contract Campaign {... */\n  mstore(0x40, 0x80)\n    /* \"Campaign.sol\":1070:1192  constructor(uint256 minimum, address creator) {... */\n  callvalue\n  dup1\n  iszero\n  tag_1\n  jumpi\n  0x00\n  dup1\n  revert\ntag_1:\n  pop\n  mload(0x40)\n  sub(codesize, bytecodeSize)\n  dup1\n  bytecodeSize\n  dup4\n  codecopy\n  dup2\n  dup2\n  add\n  0x40\n  mstore\n  dup2\n  add\n  swap1\n  tag_2\n  swap2\n  swap1\n  tag_3\n  jump\t// in\ntag_2:\n    /* \"Campaign.sol\":1137:1144  creator */\n  dup1\n    /* \"Campaign.sol\":1127:1134  manager */\n  0x01\n  0x00\n    /* \"Campaign.sol\":1127:1144  manager = creator */\n  0x0100\n  exp\n  dup2\n  sload\n  dup2\n  0xffffffffffffffffffffffffffffffffffffffff\n  mul\n  not\n  and\n  swap1\n  dup4\n  0xffffffffffffffffffffffffffffffffffffffff\n  and\n  mul\n  or\n  swap1\n  sstore\n  pop\n    /* \"Campaign.sol\":1177:1184  minimum */\n  dup2\n    /* \"Campaign.sol\":1155:1174  minimumContribution */\n  0x02\n    /* \"Campaign.sol\":1155:1184  minimumContribution = minimum */\n  dup2\n  swap1\n  sstore\n  pop\n    /* \"Campaign.sol\":1070:1192  constructor(uint256 minimum, address creator) {... */\n  pop\n  pop\n    /* \"Campaign.sol\":547:3678  contract Campaign {... */\n  jump(tag_6)\n    /* \"#utility.yul\":88:205   */\ntag_8:\n    /* \"#utility.yul\":197:198   */\n  0x00\n    /* \"#utility.yul\":194:195   */\n  dup1\n    /* \"#utility.yul\":187:199   */\n  revert\n    /* \"#utility.yul\":334:411   */\ntag_10:\n    /* \"#utility.yul\":371:378   */\n  0x00\n    /* \"#utility.yul\":400:405   */\n  dup2\n    /* \"#utility.yul\":389:405   */\n  swap1\n  pop\n    /* \"#utility.yul\":334:411   */\n  swap2\n  swap1\n  pop\n  jump\t// out\n    /* \"#utility.yul\":417:539   */\ntag_11:\n    /* \"#utility.yul\":490:514   */\n  tag_23\n    /* \"#utility.yul\":508:513   */\n  dup2\n    /* \"#utility.yul\":490:514   */\n  tag_10\n  jump\t// in\ntag_23:\n    /* \"#utility.yul\":483:488   */\n  dup2\n    /* \"#utility.yul\":480:515   */\n  eq\n    /* \"#utility.yul\":470:533   */\n  tag_24\n  jumpi\n    /* \"#utility.yul\":529:530   */\n  0x00\n    /* \"#utility.yul\":526:527   */\n  dup1\n    /* \"#utility.yul\":519:531   */\n  revert\n    /* \"#utility.yul\":470:533   */\ntag_24:\n    /* \"#utility.yul\":417:539   */\n  pop\n  jump\t// out\n    /* \"#utility.yul\":545:688   */\ntag_12:\n    /* \"#utility.yul\":602:607   */\n  0x00\n    /* \"#utility.yul\":633:639   */\n  dup2\n    /* \"#utility.yul\":627:640   */\n  mload\n    /* \"#utility.yul\":618:640   */\n  swap1\n  pop\n    /* \"#utility.yul\":649:682   */\n  tag_26\n    /* \"#utility.yul\":676:681   */\n  dup2\n    /* \"#utility.yul\":649:682   */\n  tag_11\n  jump\t// in\ntag_26:\n    /* \"#utility.yul\":545:688   */\n  swap3\n  swap2\n  pop\n  pop\n  jump\t// out\n    /* \"#utility.yul\":694:820   */\ntag_13:\n    /* \"#utility.yul\":731:738   */\n  0x00\n    /* \"#utility.yul\":771:813   */\n  0xffffffffffffffffffffffffffffffffffffffff\n    /* \"#utility.yul\":764:769   */\n  dup3\n    /* \"#utility.yul\":760:814   */\n  and\n    /* \"#utility.yul\":749:814   */\n  swap1\n  pop\n    /* \"#utility.yul\":694:820   */\n  swap2\n  swap1\n  pop\n  jump\t// out\n    /* \"#utility.yul\":826:922   */\ntag_14:\n    /* \"#utility.yul\":863:870   */\n  0x00\n    /* \"#utility.yul\":892:916   */\n  tag_29\n    /* \"#utility.yul\":910:915   */\n  dup3\n    /* \"#utility.yul\":892:916   */\n  tag_13\n  jump\t// in\ntag_29:\n    /* \"#utility.yul\":881:916   */\n  swap1\n  pop\n    /* \"#utility.yul\":826:922   */\n  swap2\n  swap1\n  pop\n  jump\t// out\n    /* \"#utility.yul\":928:1050   */\ntag_15:\n    /* \"#utility.yul\":1001:1025   */\n  tag_31\n    /* \"#utility.yul\":1019:1024   */\n  dup2\n    /* \"#utility.yul\":1001:1025   */\n  tag_14\n  jump\t// in\ntag_31:\n    /* \"#utility.yul\":994:999   */\n  dup2\n    /* \"#utility.yul\":991:1026   */\n  eq\n    /* \"#utility.yul\":981:1044   */\n  tag_32\n  jumpi\n    /* \"#utility.yul\":1040:1041   */\n  0x00\n    /* \"#utility.yul\":1037:1038   */\n  dup1\n    /* \"#utility.yul\":1030:1042   */\n  revert\n    /* \"#utility.yul\":981:1044   */\ntag_32:\n    /* \"#utility.yul\":928:1050   */\n  pop\n  jump\t// out\n    /* \"#utility.yul\":1056:1199   */\ntag_16:\n    /* \"#utility.yul\":1113:1118   */\n  0x00\n    /* \"#utility.yul\":1144:1150   */\n  dup2\n    /* \"#utility.yul\":1138:1151   */\n  mload\n    /* \"#utility.yul\":1129:1151   */\n  swap1\n  pop\n    /* \"#utility.yul\":1160:1193   */\n  tag_34\n    /* \"#utility.yul\":1187:1192   */\n  dup2\n    /* \"#utility.yul\":1160:1193   */\n  tag_15\n  jump\t// in\ntag_34:\n    /* \"#utility.yul\":1056:1199   */\n  swap3\n  swap2\n  pop\n  pop\n  jump\t// out\n    /* \"#utility.yul\":1205:1712   */\ntag_3:\n    /* \"#utility.yul\":1284:1290   */\n  0x00\n    /* \"#utility.yul\":1292:1298   */\n  dup1\n    /* \"#utility.yul\":1341:1343   */\n  0x40\n    /* \"#utility.yul\":1329:1338   */\n  dup4\n    /* \"#utility.yul\":1320:1327   */\n  dup6\n    /* \"#utility.yul\":1316:1339   */\n  sub\n    /* \"#utility.yul\":1312:1344   */\n  slt\n    /* \"#utility.yul\":1309:1428   */\n  iszero\n  tag_36\n  jumpi\n    /* \"#utility.yul\":1347:1426   */\n  tag_37\n  tag_8\n  jump\t// in\ntag_37:\n    /* \"#utility.yul\":1309:1428   */\ntag_36:\n    /* \"#utility.yul\":1467:1468   */\n  0x00\n    /* \"#utility.yul\":1492:1556   */\n  tag_38\n    /* \"#utility.yul\":1548:1555   */\n  dup6\n    /* \"#utility.yul\":1539:1545   */\n  dup3\n    /* \"#utility.yul\":1528:1537   */\n  dup7\n    /* \"#utility.yul\":1524:1546   */\n  add\n    /* \"#utility.yul\":1492:1556   */\n  tag_12\n  jump\t// in\ntag_38:\n    /* \"#utility.yul\":1482:1556   */\n  swap3\n  pop\n    /* \"#utility.yul\":1438:1566   */\n  pop\n    /* \"#utility.yul\":1605:1607   */\n  0x20\n    /* \"#utility.yul\":1631:1695   */\n  tag_39\n    /* \"#utility.yul\":1687:1694   */\n  dup6\n    /* \"#utility.yul\":1678:1684   */\n  dup3\n    /* \"#utility.yul\":1667:1676   */\n  dup7\n    /* \"#utility.yul\":1663:1685   */\n  add\n    /* \"#utility.yul\":1631:1695   */\n  tag_16\n  jump\t// in\ntag_39:\n    /* \"#utility.yul\":1621:1695   */\n  swap2\n  pop\n    /* \"#utility.yul\":1576:1705   */\n  pop\n    /* \"#utility.yul\":1205:1712   */\n  swap3\n  pop\n  swap3\n  swap1\n  pop\n  jump\t// out\n    /* \"Campaign.sol\":547:3678  contract Campaign {... */\ntag_6:\n  dataSize(sub_0)\n  dup1\n  dataOffset(sub_0)\n  0x00\n  codecopy\n  0x00\n  return\nstop\n\nsub_0: assembly {\n        /* \"Campaign.sol\":547:3678  contract Campaign {... */\n      mstore(0x40, 0x80)\n      jumpi(tag_1, lt(calldatasize, 0x04))\n      shr(0xe0, calldataload(0x00))\n      dup1\n      0x81d12c58\n      gt\n      tag_13\n      jumpi\n      dup1\n      0x81d12c58\n      eq\n      tag_7\n      jumpi\n      dup1\n      0x82fde093\n      eq\n      tag_8\n      jumpi\n      dup1\n      0x8a9cfd55\n      eq\n      tag_9\n      jumpi\n      dup1\n      0x937e09b1\n      eq\n      tag_10\n      jumpi\n      dup1\n      0xd7bb99ba\n      eq\n      tag_11\n      jumpi\n      dup1\n      0xd7d1bbdb\n      eq\n      tag_12\n      jumpi\n      jump(tag_1)\n    tag_13:\n      dup1\n      0x03441006\n      eq\n      tag_2\n      jumpi\n      dup1\n      0x0a144391\n      eq\n      tag_3\n      jumpi\n      dup1\n      0x3fad1834\n      eq\n      tag_4\n      jumpi\n      dup1\n      0x4051ddac\n      eq\n      tag_5\n      jumpi\n      dup1\n      0x481c6a75\n      eq\n      tag_6\n      jumpi\n    tag_1:\n      0x00\n      dup1\n      revert\n        /* \"Campaign.sol\":2700:3177  function finalizeRequest(uint256 index) public restricted {... */\n    tag_2:\n      callvalue\n      dup1\n      iszero\n      tag_14\n      jumpi\n      0x00\n      dup1\n      revert\n    tag_14:\n      pop\n      tag_15\n      0x04\n      dup1\n      calldatasize\n      sub\n      dup2\n      add\n      swap1\n      tag_16\n      swap2\n      swap1\n      tag_17\n      jump\t// in\n    tag_16:\n      tag_18\n      jump\t// in\n    tag_15:\n      stop\n        /* \"Campaign.sol\":893:934  mapping(address => bool) public approvers */\n    tag_3:\n      callvalue\n      dup1\n      iszero\n      tag_19\n      jumpi\n      0x00\n      dup1\n      revert\n    tag_19:\n      pop\n      tag_20\n      0x04\n      dup1\n      calldatasize\n      sub\n      dup2\n      add\n      swap1\n      tag_21\n      swap2\n      swap1\n      tag_22\n      jump\t// in\n    tag_21:\n      tag_23\n      jump\t// in\n    tag_20:\n      mload(0x40)\n      tag_24\n      swap2\n      swap1\n      tag_25\n      jump\t// in\n    tag_24:\n      mload(0x40)\n      dup1\n      swap2\n      sub\n      swap1\n      return\n        /* \"Campaign.sol\":3577:3675  function getRequestCount() public view returns (uint256) {... */\n    tag_4:\n      callvalue\n      dup1\n      iszero\n      tag_26\n      jumpi\n      0x00\n      dup1\n      revert\n    tag_26:\n      pop\n      tag_27\n      tag_28\n      jump\t// in\n    tag_27:\n      mload(0x40)\n      tag_29\n      swap2\n      swap1\n      tag_30\n      jump\t// in\n    tag_29:\n      mload(0x40)\n      dup1\n      swap2\n      sub\n      swap1\n      return\n        /* \"Campaign.sol\":3185:3569  function getSummary()... */\n    tag_5:\n      callvalue\n      dup1\n      iszero\n      tag_31\n      jumpi\n      0x00\n      dup1\n      revert\n    tag_31:\n      pop\n      tag_32\n      tag_33\n      jump\t// in\n    tag_32:\n      mload(0x40)\n      tag_34\n      swap6\n      swap5\n      swap4\n      swap3\n      swap2\n      swap1\n      tag_35\n      jump\t// in\n    tag_34:\n      mload(0x40)\n      dup1\n      swap2\n      sub\n      swap1\n      return\n        /* \"Campaign.sol\":821:843  address public manager */\n    tag_6:\n      callvalue\n      dup1\n      iszero\n      tag_36\n      jumpi\n      0x00\n      dup1\n      revert\n    tag_36:\n      pop\n      tag_37\n      tag_38\n      jump\t// in\n    tag_37:\n      mload(0x40)\n      tag_39\n      swap2\n      swap1\n      tag_40\n      jump\t// in\n    tag_39:\n      mload(0x40)\n      dup1\n      swap2\n      sub\n      swap1\n      return\n        /* \"Campaign.sol\":789:814  Request[] public requests */\n    tag_7:\n      callvalue\n      dup1\n      iszero\n      tag_41\n      jumpi\n      0x00\n      dup1\n      revert\n    tag_41:\n      pop\n      tag_42\n      0x04\n      dup1\n      calldatasize\n      sub\n      dup2\n      add\n      swap1\n      tag_43\n      swap2\n      swap1\n      tag_17\n      jump\t// in\n    tag_43:\n      tag_44\n      jump\t// in\n    tag_42:\n      mload(0x40)\n      tag_45\n      swap6\n      swap5\n      swap4\n      swap3\n      swap2\n      swap1\n      tag_46\n      jump\t// in\n    tag_45:\n      mload(0x40)\n      dup1\n      swap2\n      sub\n      swap1\n      return\n        /* \"Campaign.sol\":941:970  uint256 public approversCount */\n    tag_8:\n      callvalue\n      dup1\n      iszero\n      tag_47\n      jumpi\n      0x00\n      dup1\n      revert\n    tag_47:\n      pop\n      tag_48\n      tag_49\n      jump\t// in\n    tag_48:\n      mload(0x40)\n      tag_50\n      swap2\n      swap1\n      tag_30\n      jump\t// in\n    tag_50:\n      mload(0x40)\n      dup1\n      swap2\n      sub\n      swap1\n      return\n        /* \"Campaign.sol\":1442:2127  function createRequest(... */\n    tag_9:\n      callvalue\n      dup1\n      iszero\n      tag_51\n      jumpi\n      0x00\n      dup1\n      revert\n    tag_51:\n      pop\n      tag_52\n      0x04\n      dup1\n      calldatasize\n      sub\n      dup2\n      add\n      swap1\n      tag_53\n      swap2\n      swap1\n      tag_54\n      jump\t// in\n    tag_53:\n      tag_55\n      jump\t// in\n    tag_52:\n      stop\n        /* \"Campaign.sol\":850:884  uint256 public minimumContribution */\n    tag_10:\n      callvalue\n      dup1\n      iszero\n      tag_56\n      jumpi\n      0x00\n      dup1\n      revert\n    tag_56:\n      pop\n      tag_57\n      tag_58\n      jump\t// in\n    tag_57:\n      mload(0x40)\n      tag_59\n      swap2\n      swap1\n      tag_30\n      jump\t// in\n    tag_59:\n      mload(0x40)\n      dup1\n      swap2\n      sub\n      swap1\n      return\n        /* \"Campaign.sol\":1200:1434  function contribute() public payable {... */\n    tag_11:\n      tag_60\n      tag_61\n      jump\t// in\n    tag_60:\n      stop\n        /* \"Campaign.sol\":2135:2692  function approveRequest(uint256 index) public {... */\n    tag_12:\n      callvalue\n      dup1\n      iszero\n      tag_62\n      jumpi\n      0x00\n      dup1\n      revert\n    tag_62:\n      pop\n      tag_63\n      0x04\n      dup1\n      calldatasize\n      sub\n      dup2\n      add\n      swap1\n      tag_64\n      swap2\n      swap1\n      tag_17\n      jump\t// in\n    tag_64:\n      tag_65\n      jump\t// in\n    tag_63:\n      stop\n        /* \"Campaign.sol\":2700:3177  function finalizeRequest(uint256 index) public restricted {... */\n    tag_18:\n        /* \"Campaign.sol\":1034:1041  manager */\n      0x01\n      0x00\n      swap1\n      sload\n      swap1\n      0x0100\n      exp\n      swap1\n      div\n      0xffffffffffffffffffffffffffffffffffffffff\n      and\n        /* \"Campaign.sol\":1020:1041  msg.sender == manager */\n      0xffffffffffffffffffffffffffffffffffffffff\n      and\n        /* \"Campaign.sol\":1020:1030  msg.sender */\n      caller\n        /* \"Campaign.sol\":1020:1041  msg.sender == manager */\n      0xffffffffffffffffffffffffffffffffffffffff\n      and\n      eq\n        /* \"Campaign.sol\":1012:1042  require(msg.sender == manager) */\n      tag_67\n      jumpi\n      0x00\n      dup1\n      revert\n    tag_67:\n        /* \"Campaign.sol\":2769:2799  Request storage currentRequest */\n      0x00\n        /* \"Campaign.sol\":2802:2810  requests */\n      dup1\n        /* \"Campaign.sol\":2811:2816  index */\n      dup3\n        /* \"Campaign.sol\":2802:2817  requests[index] */\n      dup2\n      sload\n      dup2\n      lt\n      tag_69\n      jumpi\n      tag_70\n      tag_71\n      jump\t// in\n    tag_70:\n    tag_69:\n      swap1\n      0x00\n      mstore\n      keccak256(0x00, 0x20)\n      swap1\n      0x05\n      mul\n      add\n        /* \"Campaign.sol\":2769:2817  Request storage currentRequest = requests[index] */\n      swap1\n      pop\n        /* \"Campaign.sol\":2839:2853  currentRequest */\n      dup1\n        /* \"Campaign.sol\":2839:2862  currentRequest.complete */\n      0x02\n      add\n      0x14\n      swap1\n      sload\n      swap1\n      0x0100\n      exp\n      swap1\n      div\n      0xff\n      and\n        /* \"Campaign.sol\":2838:2862  !currentRequest.complete */\n      iszero\n        /* \"Campaign.sol\":2830:2900  require(!currentRequest.complete, \"this request is already finalized\") */\n      tag_73\n      jumpi\n      mload(0x40)\n      0x08c379a000000000000000000000000000000000000000000000000000000000\n      dup2\n      mstore\n      0x04\n      add\n      tag_74\n      swap1\n      tag_75\n      jump\t// in\n    tag_74:\n      mload(0x40)\n      dup1\n      swap2\n      sub\n      swap1\n      revert\n    tag_73:\n        /* \"Campaign.sol\":2983:2984  2 */\n      0x02\n        /* \"Campaign.sol\":2966:2980  approversCount */\n      sload(0x04)\n        /* \"Campaign.sol\":2966:2984  approversCount / 2 */\n      tag_76\n      swap2\n      swap1\n      tag_77\n      jump\t// in\n    tag_76:\n        /* \"Campaign.sol\":2933:2947  currentRequest */\n      dup2\n        /* \"Campaign.sol\":2933:2962  currentRequest.approvalsCount */\n      0x03\n      add\n      sload\n        /* \"Campaign.sol\":2933:2985  currentRequest.approvalsCount > (approversCount / 2) */\n      gt\n        /* \"Campaign.sol\":2911:3051  require(... */\n      tag_78\n      jumpi\n      mload(0x40)\n      0x08c379a000000000000000000000000000000000000000000000000000000000\n      dup2\n      mstore\n      0x04\n      add\n      tag_79\n      swap1\n      tag_80\n      jump\t// in\n    tag_79:\n      mload(0x40)\n      dup1\n      swap2\n      sub\n      swap1\n      revert\n    tag_78:\n        /* \"Campaign.sol\":3072:3086  currentRequest */\n      dup1\n        /* \"Campaign.sol\":3072:3096  currentRequest.recipient */\n      0x02\n      add\n      0x00\n      swap1\n      sload\n      swap1\n      0x0100\n      exp\n      swap1\n      div\n      0xffffffffffffffffffffffffffffffffffffffff\n      and\n        /* \"Campaign.sol\":3064:3106  payable(currentRequest.recipient).transfer */\n      0xffffffffffffffffffffffffffffffffffffffff\n      and\n        /* \"Campaign.sol\":3064:3128  payable(currentRequest.recipient).transfer(currentRequest.value) */\n      0x08fc\n        /* \"Campaign.sol\":3107:3121  currentRequest */\n      dup3\n        /* \"Campaign.sol\":3107:3127  currentRequest.value */\n      0x01\n      add\n      sload\n        /* \"Campaign.sol\":3064:3128  payable(currentRequest.recipient).transfer(currentRequest.value) */\n      swap1\n      dup2\n      iszero\n      mul\n      swap1\n      mload(0x40)\n      0x00\n      mload(0x40)\n      dup1\n      dup4\n      sub\n      dup2\n      dup6\n      dup9\n      dup9\n      call\n      swap4\n      pop\n      pop\n      pop\n      pop\n      iszero\n      dup1\n      iszero\n      tag_82\n      jumpi\n      returndatasize\n      0x00\n      dup1\n      returndatacopy\n      revert(0x00, returndatasize)\n    tag_82:\n      pop\n        /* \"Campaign.sol\":3165:3169  true */\n      0x01\n        /* \"Campaign.sol\":3139:3153  currentRequest */\n      dup2\n        /* \"Campaign.sol\":3139:3162  currentRequest.complete */\n      0x02\n      add\n      0x14\n        /* \"Campaign.sol\":3139:3169  currentRequest.complete = true */\n      0x0100\n      exp\n      dup2\n      sload\n      dup2\n      0xff\n      mul\n      not\n      and\n      swap1\n      dup4\n      iszero\n      iszero\n      mul\n      or\n      swap1\n      sstore\n      pop\n        /* \"Campaign.sol\":2758:3177  {... */\n      pop\n        /* \"Campaign.sol\":2700:3177  function finalizeRequest(uint256 index) public restricted {... */\n      pop\n      jump\t// out\n        /* \"Campaign.sol\":893:934  mapping(address => bool) public approvers */\n    tag_23:\n      mstore(0x20, 0x03)\n      dup1\n      0x00\n      mstore\n      keccak256(0x00, 0x40)\n      0x00\n      swap2\n      pop\n      sload\n      swap1\n      0x0100\n      exp\n      swap1\n      div\n      0xff\n      and\n      dup2\n      jump\t// out\n        /* \"Campaign.sol\":3577:3675  function getRequestCount() public view returns (uint256) {... */\n    tag_28:\n        /* \"Campaign.sol\":3625:3632  uint256 */\n      0x00\n        /* \"Campaign.sol\":3652:3660  requests */\n      dup1\n        /* \"Campaign.sol\":3652:3667  requests.length */\n      dup1\n      sload\n      swap1\n      pop\n        /* \"Campaign.sol\":3645:3667  return requests.length */\n      swap1\n      pop\n        /* \"Campaign.sol\":3577:3675  function getRequestCount() public view returns (uint256) {... */\n      swap1\n      jump\t// out\n        /* \"Campaign.sol\":3185:3569  function getSummary()... */\n    tag_33:\n        /* \"Campaign.sol\":3269:3276  uint256 */\n      0x00\n        /* \"Campaign.sol\":3291:3298  uint256 */\n      dup1\n        /* \"Campaign.sol\":3313:3320  uint256 */\n      0x00\n        /* \"Campaign.sol\":3335:3342  uint256 */\n      dup1\n        /* \"Campaign.sol\":3357:3364  address */\n      0x00\n        /* \"Campaign.sol\":3414:3433  minimumContribution */\n      sload(0x02)\n        /* \"Campaign.sol\":3448:3469  address(this).balance */\n      selfbalance\n        /* \"Campaign.sol\":3484:3492  requests */\n      0x00\n        /* \"Campaign.sol\":3484:3499  requests.length */\n      dup1\n      sload\n      swap1\n      pop\n        /* \"Campaign.sol\":3514:3528  approversCount */\n      sload(0x04)\n        /* \"Campaign.sol\":3543:3550  manager */\n      0x01\n      0x00\n      swap1\n      sload\n      swap1\n      0x0100\n      exp\n      swap1\n      div\n      0xffffffffffffffffffffffffffffffffffffffff\n      and\n        /* \"Campaign.sol\":3392:3561  return (... */\n      swap5\n      pop\n      swap5\n      pop\n      swap5\n      pop\n      swap5\n      pop\n      swap5\n      pop\n        /* \"Campaign.sol\":3185:3569  function getSummary()... */\n      swap1\n      swap2\n      swap3\n      swap4\n      swap5\n      jump\t// out\n        /* \"Campaign.sol\":821:843  address public manager */\n    tag_38:\n      0x01\n      0x00\n      swap1\n      sload\n      swap1\n      0x0100\n      exp\n      swap1\n      div\n      0xffffffffffffffffffffffffffffffffffffffff\n      and\n      dup2\n      jump\t// out\n        /* \"Campaign.sol\":789:814  Request[] public requests */\n    tag_44:\n      0x00\n      dup2\n      dup2\n      sload\n      dup2\n      lt\n      tag_85\n      jumpi\n      0x00\n      dup1\n      revert\n    tag_85:\n      swap1\n      0x00\n      mstore\n      keccak256(0x00, 0x20)\n      swap1\n      0x05\n      mul\n      add\n      0x00\n      swap2\n      pop\n      swap1\n      pop\n      dup1\n      0x00\n      add\n      dup1\n      sload\n      tag_87\n      swap1\n      tag_88\n      jump\t// in\n    tag_87:\n      dup1\n      0x1f\n      add\n      0x20\n      dup1\n      swap2\n      div\n      mul\n      0x20\n      add\n      mload(0x40)\n      swap1\n      dup2\n      add\n      0x40\n      mstore\n      dup1\n      swap3\n      swap2\n      swap1\n      dup2\n      dup2\n      mstore\n      0x20\n      add\n      dup3\n      dup1\n      sload\n      tag_89\n      swap1\n      tag_88\n      jump\t// in\n    tag_89:\n      dup1\n      iszero\n      tag_90\n      jumpi\n      dup1\n      0x1f\n      lt\n      tag_91\n      jumpi\n      0x0100\n      dup1\n      dup4\n      sload\n      div\n      mul\n      dup4\n      mstore\n      swap2\n      0x20\n      add\n      swap2\n      jump(tag_90)\n    tag_91:\n      dup3\n      add\n      swap2\n      swap1\n      0x00\n      mstore\n      keccak256(0x00, 0x20)\n      swap1\n    tag_92:\n      dup2\n      sload\n      dup2\n      mstore\n      swap1\n      0x01\n      add\n      swap1\n      0x20\n      add\n      dup1\n      dup4\n      gt\n      tag_92\n      jumpi\n      dup3\n      swap1\n      sub\n      0x1f\n      and\n      dup3\n      add\n      swap2\n    tag_90:\n      pop\n      pop\n      pop\n      pop\n      pop\n      swap1\n      dup1\n      0x01\n      add\n      sload\n      swap1\n      dup1\n      0x02\n      add\n      0x00\n      swap1\n      sload\n      swap1\n      0x0100\n      exp\n      swap1\n      div\n      0xffffffffffffffffffffffffffffffffffffffff\n      and\n      swap1\n      dup1\n      0x02\n      add\n      0x14\n      swap1\n      sload\n      swap1\n      0x0100\n      exp\n      swap1\n      div\n      0xff\n      and\n      swap1\n      dup1\n      0x03\n      add\n      sload\n      swap1\n      pop\n      dup6\n      jump\t// out\n        /* \"Campaign.sol\":941:970  uint256 public approversCount */\n    tag_49:\n      sload(0x04)\n      dup2\n      jump\t// out\n        /* \"Campaign.sol\":1442:2127  function createRequest(... */\n    tag_55:\n        /* \"Campaign.sol\":1034:1041  manager */\n      0x01\n      0x00\n      swap1\n      sload\n      swap1\n      0x0100\n      exp\n      swap1\n      div\n      0xffffffffffffffffffffffffffffffffffffffff\n      and\n        /* \"Campaign.sol\":1020:1041  msg.sender == manager */\n      0xffffffffffffffffffffffffffffffffffffffff\n      and\n        /* \"Campaign.sol\":1020:1030  msg.sender */\n      caller\n        /* \"Campaign.sol\":1020:1041  msg.sender == manager */\n      0xffffffffffffffffffffffffffffffffffffffff\n      and\n      eq\n        /* \"Campaign.sol\":1012:1042  require(msg.sender == manager) */\n      tag_94\n      jumpi\n      0x00\n      dup1\n      revert\n    tag_94:\n        /* \"Campaign.sol\":1831:1857  Request storage newRequest */\n      0x00\n        /* \"Campaign.sol\":1860:1868  requests */\n      dup1\n        /* \"Campaign.sol\":1860:1875  requests.push() */\n      0x01\n      dup2\n      0x01\n      dup2\n      sload\n      add\n      dup1\n      dup3\n      sstore\n      dup1\n      swap2\n      pop\n      pop\n      sub\n      swap1\n      0x00\n      mstore\n      keccak256(0x00, 0x20)\n      swap1\n      0x05\n      mul\n      add\n        /* \"Campaign.sol\":1831:1875  Request storage newRequest = requests.push() */\n      swap1\n      pop\n        /* \"Campaign.sol\":1911:1922  description */\n      dup4\n        /* \"Campaign.sol\":1886:1896  newRequest */\n      dup2\n        /* \"Campaign.sol\":1886:1908  newRequest.description */\n      0x00\n      add\n        /* \"Campaign.sol\":1886:1922  newRequest.description = description */\n      swap1\n      dup1\n      mload\n      swap1\n      0x20\n      add\n      swap1\n      tag_97\n      swap3\n      swap2\n      swap1\n      tag_98\n      jump\t// in\n    tag_97:\n      pop\n        /* \"Campaign.sol\":1952:1957  value */\n      dup3\n        /* \"Campaign.sol\":1933:1943  newRequest */\n      dup2\n        /* \"Campaign.sol\":1933:1949  newRequest.value */\n      0x01\n      add\n        /* \"Campaign.sol\":1933:1957  newRequest.value = value */\n      dup2\n      swap1\n      sstore\n      pop\n        /* \"Campaign.sol\":1991:2000  recipient */\n      dup2\n        /* \"Campaign.sol\":1968:1978  newRequest */\n      dup2\n        /* \"Campaign.sol\":1968:1988  newRequest.recipient */\n      0x02\n      add\n      0x00\n        /* \"Campaign.sol\":1968:2000  newRequest.recipient = recipient */\n      0x0100\n      exp\n      dup2\n      sload\n      dup2\n      0xffffffffffffffffffffffffffffffffffffffff\n      mul\n      not\n      and\n      swap1\n      dup4\n      0xffffffffffffffffffffffffffffffffffffffff\n      and\n      mul\n      or\n      swap1\n      sstore\n      pop\n        /* \"Campaign.sol\":2033:2038  false */\n      0x00\n        /* \"Campaign.sol\":2011:2021  newRequest */\n      dup2\n        /* \"Campaign.sol\":2011:2030  newRequest.complete */\n      0x02\n      add\n      0x14\n        /* \"Campaign.sol\":2011:2038  newRequest.complete = false */\n      0x0100\n      exp\n      dup2\n      sload\n      dup2\n      0xff\n      mul\n      not\n      and\n      swap1\n      dup4\n      iszero\n      iszero\n      mul\n      or\n      swap1\n      sstore\n      pop\n        /* \"Campaign.sol\":2077:2078  0 */\n      0x00\n        /* \"Campaign.sol\":2049:2059  newRequest */\n      dup2\n        /* \"Campaign.sol\":2049:2074  newRequest.approvalsCount */\n      0x03\n      add\n        /* \"Campaign.sol\":2049:2078  newRequest.approvalsCount = 0 */\n      dup2\n      swap1\n      sstore\n      pop\n        /* \"Campaign.sol\":1578:2127  {... */\n      pop\n        /* \"Campaign.sol\":1442:2127  function createRequest(... */\n      pop\n      pop\n      pop\n      jump\t// out\n        /* \"Campaign.sol\":850:884  uint256 public minimumContribution */\n    tag_58:\n      sload(0x02)\n      dup2\n      jump\t// out\n        /* \"Campaign.sol\":1200:1434  function contribute() public payable {... */\n    tag_61:\n        /* \"Campaign.sol\":1283:1302  minimumContribution */\n      sload(0x02)\n        /* \"Campaign.sol\":1271:1280  msg.value */\n      callvalue\n        /* \"Campaign.sol\":1271:1302  msg.value > minimumContribution */\n      gt\n        /* \"Campaign.sol\":1248:1358  require(... */\n      tag_100\n      jumpi\n      mload(0x40)\n      0x08c379a000000000000000000000000000000000000000000000000000000000\n      dup2\n      mstore\n      0x04\n      add\n      tag_101\n      swap1\n      tag_102\n      jump\t// in\n    tag_101:\n      mload(0x40)\n      dup1\n      swap2\n      sub\n      swap1\n      revert\n    tag_100:\n        /* \"Campaign.sol\":1395:1399  true */\n      0x01\n        /* \"Campaign.sol\":1371:1380  approvers */\n      0x03\n        /* \"Campaign.sol\":1371:1392  approvers[msg.sender] */\n      0x00\n        /* \"Campaign.sol\":1381:1391  msg.sender */\n      caller\n        /* \"Campaign.sol\":1371:1392  approvers[msg.sender] */\n      0xffffffffffffffffffffffffffffffffffffffff\n      and\n      0xffffffffffffffffffffffffffffffffffffffff\n      and\n      dup2\n      mstore\n      0x20\n      add\n      swap1\n      dup2\n      mstore\n      0x20\n      add\n      0x00\n      keccak256\n      0x00\n        /* \"Campaign.sol\":1371:1399  approvers[msg.sender] = true */\n      0x0100\n      exp\n      dup2\n      sload\n      dup2\n      0xff\n      mul\n      not\n      and\n      swap1\n      dup4\n      iszero\n      iszero\n      mul\n      or\n      swap1\n      sstore\n      pop\n        /* \"Campaign.sol\":1410:1424  approversCount */\n      0x04\n      0x00\n        /* \"Campaign.sol\":1410:1426  approversCount++ */\n      dup2\n      sload\n      dup1\n      swap3\n      swap2\n      swap1\n      tag_103\n      swap1\n      tag_104\n      jump\t// in\n    tag_103:\n      swap2\n      swap1\n      pop\n      sstore\n      pop\n        /* \"Campaign.sol\":1200:1434  function contribute() public payable {... */\n      jump\t// out\n        /* \"Campaign.sol\":2135:2692  function approveRequest(uint256 index) public {... */\n    tag_65:\n        /* \"Campaign.sol\":2192:2222  Request storage currentRequest */\n      0x00\n        /* \"Campaign.sol\":2225:2233  requests */\n      dup1\n        /* \"Campaign.sol\":2234:2239  index */\n      dup3\n        /* \"Campaign.sol\":2225:2240  requests[index] */\n      dup2\n      sload\n      dup2\n      lt\n      tag_106\n      jumpi\n      tag_107\n      tag_71\n      jump\t// in\n    tag_107:\n    tag_106:\n      swap1\n      0x00\n      mstore\n      keccak256(0x00, 0x20)\n      swap1\n      0x05\n      mul\n      add\n        /* \"Campaign.sol\":2192:2240  Request storage currentRequest = requests[index] */\n      swap1\n      pop\n        /* \"Campaign.sol\":2320:2329  approvers */\n      0x03\n        /* \"Campaign.sol\":2320:2341  approvers[msg.sender] */\n      0x00\n        /* \"Campaign.sol\":2330:2340  msg.sender */\n      caller\n        /* \"Campaign.sol\":2320:2341  approvers[msg.sender] */\n      0xffffffffffffffffffffffffffffffffffffffff\n      and\n      0xffffffffffffffffffffffffffffffffffffffff\n      and\n      dup2\n      mstore\n      0x20\n      add\n      swap1\n      dup2\n      mstore\n      0x20\n      add\n      0x00\n      keccak256\n      0x00\n      swap1\n      sload\n      swap1\n      0x0100\n      exp\n      swap1\n      div\n      0xff\n      and\n        /* \"Campaign.sol\":2312:2367  require(approvers[msg.sender], \"sender did not donate\") */\n      tag_109\n      jumpi\n      mload(0x40)\n      0x08c379a000000000000000000000000000000000000000000000000000000000\n      dup2\n      mstore\n      0x04\n      add\n      tag_110\n      swap1\n      tag_111\n      jump\t// in\n    tag_110:\n      mload(0x40)\n      dup1\n      swap2\n      sub\n      swap1\n      revert\n    tag_109:\n        /* \"Campaign.sol\":2463:2477  currentRequest */\n      dup1\n        /* \"Campaign.sol\":2463:2492  currentRequest.peopleApproved */\n      0x04\n      add\n        /* \"Campaign.sol\":2463:2504  currentRequest.peopleApproved[msg.sender] */\n      0x00\n        /* \"Campaign.sol\":2493:2503  msg.sender */\n      caller\n        /* \"Campaign.sol\":2463:2504  currentRequest.peopleApproved[msg.sender] */\n      0xffffffffffffffffffffffffffffffffffffffff\n      and\n      0xffffffffffffffffffffffffffffffffffffffff\n      and\n      dup2\n      mstore\n      0x20\n      add\n      swap1\n      dup2\n      mstore\n      0x20\n      add\n      0x00\n      keccak256\n      0x00\n      swap1\n      sload\n      swap1\n      0x0100\n      exp\n      swap1\n      div\n      0xff\n      and\n        /* \"Campaign.sol\":2462:2504  !currentRequest.peopleApproved[msg.sender] */\n      iszero\n        /* \"Campaign.sol\":2440:2556  require(... */\n      tag_112\n      jumpi\n      mload(0x40)\n      0x08c379a000000000000000000000000000000000000000000000000000000000\n      dup2\n      mstore\n      0x04\n      add\n      tag_113\n      swap1\n      tag_114\n      jump\t// in\n    tag_113:\n      mload(0x40)\n      dup1\n      swap2\n      sub\n      swap1\n      revert\n    tag_112:\n        /* \"Campaign.sol\":2594:2608  currentRequest */\n      dup1\n        /* \"Campaign.sol\":2594:2623  currentRequest.approvalsCount */\n      0x03\n      add\n      0x00\n        /* \"Campaign.sol\":2594:2625  currentRequest.approvalsCount++ */\n      dup2\n      sload\n      dup1\n      swap3\n      swap2\n      swap1\n      tag_115\n      swap1\n      tag_104\n      jump\t// in\n    tag_115:\n      swap2\n      swap1\n      pop\n      sstore\n      pop\n        /* \"Campaign.sol\":2680:2684  true */\n      0x01\n        /* \"Campaign.sol\":2636:2650  currentRequest */\n      dup2\n        /* \"Campaign.sol\":2636:2665  currentRequest.peopleApproved */\n      0x04\n      add\n        /* \"Campaign.sol\":2636:2677  currentRequest.peopleApproved[msg.sender] */\n      0x00\n        /* \"Campaign.sol\":2666:2676  msg.sender */\n      caller\n        /* \"Campaign.sol\":2636:2677  currentRequest.peopleApproved[msg.sender] */\n      0xffffffffffffffffffffffffffffffffffffffff\n      and\n      0xffffffffffffffffffffffffffffffffffffffff\n      and\n      dup2\n      mstore\n      0x20\n      add\n      swap1\n      dup2\n      mstore\n      0x20\n      add\n      0x00\n      keccak256\n      0x00\n        /* \"Campaign.sol\":2636:2684  currentRequest.peopleApproved[msg.sender] = true */\n      0x0100\n      exp\n      dup2\n      sload\n      dup2\n      0xff\n      mul\n      not\n      and\n      swap1\n      dup4\n      iszero\n      iszero\n      mul\n      or\n      swap1\n      sstore\n      pop\n        /* \"Campaign.sol\":2181:2692  {... */\n      pop\n        /* \"Campaign.sol\":2135:2692  function approveRequest(uint256 index) public {... */\n      pop\n      jump\t// out\n    tag_98:\n      dup3\n      dup1\n      sload\n      tag_116\n      swap1\n      tag_88\n      jump\t// in\n    tag_116:\n      swap1\n      0x00\n      mstore\n      keccak256(0x00, 0x20)\n      swap1\n      0x1f\n      add\n      0x20\n      swap1\n      div\n      dup2\n      add\n      swap3\n      dup3\n      tag_118\n      jumpi\n      0x00\n      dup6\n      sstore\n      jump(tag_117)\n    tag_118:\n      dup3\n      0x1f\n      lt\n      tag_119\n      jumpi\n      dup1\n      mload\n      not(0xff)\n      and\n      dup4\n      dup1\n      add\n      or\n      dup6\n      sstore\n      jump(tag_117)\n    tag_119:\n      dup3\n      dup1\n      add\n      0x01\n      add\n      dup6\n      sstore\n      dup3\n      iszero\n      tag_117\n      jumpi\n      swap2\n      dup3\n      add\n    tag_120:\n      dup3\n      dup2\n      gt\n      iszero\n      tag_121\n      jumpi\n      dup3\n      mload\n      dup3\n      sstore\n      swap2\n      0x20\n      add\n      swap2\n      swap1\n      0x01\n      add\n      swap1\n      jump(tag_120)\n    tag_121:\n    tag_117:\n      pop\n      swap1\n      pop\n      tag_122\n      swap2\n      swap1\n      tag_123\n      jump\t// in\n    tag_122:\n      pop\n      swap1\n      jump\t// out\n    tag_123:\n    tag_124:\n      dup1\n      dup3\n      gt\n      iszero\n      tag_125\n      jumpi\n      0x00\n      dup2\n      0x00\n      swap1\n      sstore\n      pop\n      0x01\n      add\n      jump(tag_124)\n    tag_125:\n      pop\n      swap1\n      jump\t// out\n        /* \"#utility.yul\":7:82   */\n    tag_126:\n        /* \"#utility.yul\":40:46   */\n      0x00\n        /* \"#utility.yul\":73:75   */\n      0x40\n        /* \"#utility.yul\":67:76   */\n      mload\n        /* \"#utility.yul\":57:76   */\n      swap1\n      pop\n        /* \"#utility.yul\":7:82   */\n      swap1\n      jump\t// out\n        /* \"#utility.yul\":88:205   */\n    tag_127:\n        /* \"#utility.yul\":197:198   */\n      0x00\n        /* \"#utility.yul\":194:195   */\n      dup1\n        /* \"#utility.yul\":187:199   */\n      revert\n        /* \"#utility.yul\":211:328   */\n    tag_128:\n        /* \"#utility.yul\":320:321   */\n      0x00\n        /* \"#utility.yul\":317:318   */\n      dup1\n        /* \"#utility.yul\":310:322   */\n      revert\n        /* \"#utility.yul\":334:411   */\n    tag_129:\n        /* \"#utility.yul\":371:378   */\n      0x00\n        /* \"#utility.yul\":400:405   */\n      dup2\n        /* \"#utility.yul\":389:405   */\n      swap1\n      pop\n        /* \"#utility.yul\":334:411   */\n      swap2\n      swap1\n      pop\n      jump\t// out\n        /* \"#utility.yul\":417:539   */\n    tag_130:\n        /* \"#utility.yul\":490:514   */\n      tag_173\n        /* \"#utility.yul\":508:513   */\n      dup2\n        /* \"#utility.yul\":490:514   */\n      tag_129\n      jump\t// in\n    tag_173:\n        /* \"#utility.yul\":483:488   */\n      dup2\n        /* \"#utility.yul\":480:515   */\n      eq\n        /* \"#utility.yul\":470:533   */\n      tag_174\n      jumpi\n        /* \"#utility.yul\":529:530   */\n      0x00\n        /* \"#utility.yul\":526:527   */\n      dup1\n        /* \"#utility.yul\":519:531   */\n      revert\n        /* \"#utility.yul\":470:533   */\n    tag_174:\n        /* \"#utility.yul\":417:539   */\n      pop\n      jump\t// out\n        /* \"#utility.yul\":545:684   */\n    tag_131:\n        /* \"#utility.yul\":591:596   */\n      0x00\n        /* \"#utility.yul\":629:635   */\n      dup2\n        /* \"#utility.yul\":616:636   */\n      calldataload\n        /* \"#utility.yul\":607:636   */\n      swap1\n      pop\n        /* \"#utility.yul\":645:678   */\n      tag_176\n        /* \"#utility.yul\":672:677   */\n      dup2\n        /* \"#utility.yul\":645:678   */\n      tag_130\n      jump\t// in\n    tag_176:\n        /* \"#utility.yul\":545:684   */\n      swap3\n      swap2\n      pop\n      pop\n      jump\t// out\n        /* \"#utility.yul\":690:1019   */\n    tag_17:\n        /* \"#utility.yul\":749:755   */\n      0x00\n        /* \"#utility.yul\":798:800   */\n      0x20\n        /* \"#utility.yul\":786:795   */\n      dup3\n        /* \"#utility.yul\":777:784   */\n      dup5\n        /* \"#utility.yul\":773:796   */\n      sub\n        /* \"#utility.yul\":769:801   */\n      slt\n        /* \"#utility.yul\":766:885   */\n      iszero\n      tag_178\n      jumpi\n        /* \"#utility.yul\":804:883   */\n      tag_179\n      tag_127\n      jump\t// in\n    tag_179:\n        /* \"#utility.yul\":766:885   */\n    tag_178:\n        /* \"#utility.yul\":924:925   */\n      0x00\n        /* \"#utility.yul\":949:1002   */\n      tag_180\n        /* \"#utility.yul\":994:1001   */\n      dup5\n        /* \"#utility.yul\":985:991   */\n      dup3\n        /* \"#utility.yul\":974:983   */\n      dup6\n        /* \"#utility.yul\":970:992   */\n      add\n        /* \"#utility.yul\":949:1002   */\n      tag_131\n      jump\t// in\n    tag_180:\n        /* \"#utility.yul\":939:1002   */\n      swap2\n      pop\n        /* \"#utility.yul\":895:1012   */\n      pop\n        /* \"#utility.yul\":690:1019   */\n      swap3\n      swap2\n      pop\n      pop\n      jump\t// out\n        /* \"#utility.yul\":1025:1151   */\n    tag_132:\n        /* \"#utility.yul\":1062:1069   */\n      0x00\n        /* \"#utility.yul\":1102:1144   */\n      0xffffffffffffffffffffffffffffffffffffffff\n        /* \"#utility.yul\":1095:1100   */\n      dup3\n        /* \"#utility.yul\":1091:1145   */\n      and\n        /* \"#utility.yul\":1080:1145   */\n      swap1\n      pop\n        /* \"#utility.yul\":1025:1151   */\n      swap2\n      swap1\n      pop\n      jump\t// out\n        /* \"#utility.yul\":1157:1253   */\n    tag_133:\n        /* \"#utility.yul\":1194:1201   */\n      0x00\n        /* \"#utility.yul\":1223:1247   */\n      tag_183\n        /* \"#utility.yul\":1241:1246   */\n      dup3\n        /* \"#utility.yul\":1223:1247   */\n      tag_132\n      jump\t// in\n    tag_183:\n        /* \"#utility.yul\":1212:1247   */\n      swap1\n      pop\n        /* \"#utility.yul\":1157:1253   */\n      swap2\n      swap1\n      pop\n      jump\t// out\n        /* \"#utility.yul\":1259:1381   */\n    tag_134:\n        /* \"#utility.yul\":1332:1356   */\n      tag_185\n        /* \"#utility.yul\":1350:1355   */\n      dup2\n        /* \"#utility.yul\":1332:1356   */\n      tag_133\n      jump\t// in\n    tag_185:\n        /* \"#utility.yul\":1325:1330   */\n      dup2\n        /* \"#utility.yul\":1322:1357   */\n      eq\n        /* \"#utility.yul\":1312:1375   */\n      tag_186\n      jumpi\n        /* \"#utility.yul\":1371:1372   */\n      0x00\n        /* \"#utility.yul\":1368:1369   */\n      dup1\n        /* \"#utility.yul\":1361:1373   */\n      revert\n        /* \"#utility.yul\":1312:1375   */\n    tag_186:\n        /* \"#utility.yul\":1259:1381   */\n      pop\n      jump\t// out\n        /* \"#utility.yul\":1387:1526   */\n    tag_135:\n        /* \"#utility.yul\":1433:1438   */\n      0x00\n        /* \"#utility.yul\":1471:1477   */\n      dup2\n        /* \"#utility.yul\":1458:1478   */\n      calldataload\n        /* \"#utility.yul\":1449:1478   */\n      swap1\n      pop\n        /* \"#utility.yul\":1487:1520   */\n      tag_188\n        /* \"#utility.yul\":1514:1519   */\n      dup2\n        /* \"#utility.yul\":1487:1520   */\n      tag_134\n      jump\t// in\n    tag_188:\n        /* \"#utility.yul\":1387:1526   */\n      swap3\n      swap2\n      pop\n      pop\n      jump\t// out\n        /* \"#utility.yul\":1532:1861   */\n    tag_22:\n        /* \"#utility.yul\":1591:1597   */\n      0x00\n        /* \"#utility.yul\":1640:1642   */\n      0x20\n        /* \"#utility.yul\":1628:1637   */\n      dup3\n        /* \"#utility.yul\":1619:1626   */\n      dup5\n        /* \"#utility.yul\":1615:1638   */\n      sub\n        /* \"#utility.yul\":1611:1643   */\n      slt\n        /* \"#utility.yul\":1608:1727   */\n      iszero\n      tag_190\n      jumpi\n        /* \"#utility.yul\":1646:1725   */\n      tag_191\n      tag_127\n      jump\t// in\n    tag_191:\n        /* \"#utility.yul\":1608:1727   */\n    tag_190:\n        /* \"#utility.yul\":1766:1767   */\n      0x00\n        /* \"#utility.yul\":1791:1844   */\n      tag_192\n        /* \"#utility.yul\":1836:1843   */\n      dup5\n        /* \"#utility.yul\":1827:1833   */\n      dup3\n        /* \"#utility.yul\":1816:1825   */\n      dup6\n        /* \"#utility.yul\":1812:1834   */\n      add\n        /* \"#utility.yul\":1791:1844   */\n      tag_135\n      jump\t// in\n    tag_192:\n        /* \"#utility.yul\":1781:1844   */\n      swap2\n      pop\n        /* \"#utility.yul\":1737:1854   */\n      pop\n        /* \"#utility.yul\":1532:1861   */\n      swap3\n      swap2\n      pop\n      pop\n      jump\t// out\n        /* \"#utility.yul\":1867:1957   */\n    tag_136:\n        /* \"#utility.yul\":1901:1908   */\n      0x00\n        /* \"#utility.yul\":1944:1949   */\n      dup2\n        /* \"#utility.yul\":1937:1950   */\n      iszero\n        /* \"#utility.yul\":1930:1951   */\n      iszero\n        /* \"#utility.yul\":1919:1951   */\n      swap1\n      pop\n        /* \"#utility.yul\":1867:1957   */\n      swap2\n      swap1\n      pop\n      jump\t// out\n        /* \"#utility.yul\":1963:2072   */\n    tag_137:\n        /* \"#utility.yul\":2044:2065   */\n      tag_195\n        /* \"#utility.yul\":2059:2064   */\n      dup2\n        /* \"#utility.yul\":2044:2065   */\n      tag_136\n      jump\t// in\n    tag_195:\n        /* \"#utility.yul\":2039:2042   */\n      dup3\n        /* \"#utility.yul\":2032:2066   */\n      mstore\n        /* \"#utility.yul\":1963:2072   */\n      pop\n      pop\n      jump\t// out\n        /* \"#utility.yul\":2078:2288   */\n    tag_25:\n        /* \"#utility.yul\":2165:2169   */\n      0x00\n        /* \"#utility.yul\":2203:2205   */\n      0x20\n        /* \"#utility.yul\":2192:2201   */\n      dup3\n        /* \"#utility.yul\":2188:2206   */\n      add\n        /* \"#utility.yul\":2180:2206   */\n      swap1\n      pop\n        /* \"#utility.yul\":2216:2281   */\n      tag_197\n        /* \"#utility.yul\":2278:2279   */\n      0x00\n        /* \"#utility.yul\":2267:2276   */\n      dup4\n        /* \"#utility.yul\":2263:2280   */\n      add\n        /* \"#utility.yul\":2254:2260   */\n      dup5\n        /* \"#utility.yul\":2216:2281   */\n      tag_137\n      jump\t// in\n    tag_197:\n        /* \"#utility.yul\":2078:2288   */\n      swap3\n      swap2\n      pop\n      pop\n      jump\t// out\n        /* \"#utility.yul\":2294:2412   */\n    tag_138:\n        /* \"#utility.yul\":2381:2405   */\n      tag_199\n        /* \"#utility.yul\":2399:2404   */\n      dup2\n        /* \"#utility.yul\":2381:2405   */\n      tag_129\n      jump\t// in\n    tag_199:\n        /* \"#utility.yul\":2376:2379   */\n      dup3\n        /* \"#utility.yul\":2369:2406   */\n      mstore\n        /* \"#utility.yul\":2294:2412   */\n      pop\n      pop\n      jump\t// out\n        /* \"#utility.yul\":2418:2640   */\n    tag_30:\n        /* \"#utility.yul\":2511:2515   */\n      0x00\n        /* \"#utility.yul\":2549:2551   */\n      0x20\n        /* \"#utility.yul\":2538:2547   */\n      dup3\n        /* \"#utility.yul\":2534:2552   */\n      add\n        /* \"#utility.yul\":2526:2552   */\n      swap1\n      pop\n        /* \"#utility.yul\":2562:2633   */\n      tag_201\n        /* \"#utility.yul\":2630:2631   */\n      0x00\n        /* \"#utility.yul\":2619:2628   */\n      dup4\n        /* \"#utility.yul\":2615:2632   */\n      add\n        /* \"#utility.yul\":2606:2612   */\n      dup5\n        /* \"#utility.yul\":2562:2633   */\n      tag_138\n      jump\t// in\n    tag_201:\n        /* \"#utility.yul\":2418:2640   */\n      swap3\n      swap2\n      pop\n      pop\n      jump\t// out\n        /* \"#utility.yul\":2646:2764   */\n    tag_139:\n        /* \"#utility.yul\":2733:2757   */\n      tag_203\n        /* \"#utility.yul\":2751:2756   */\n      dup2\n        /* \"#utility.yul\":2733:2757   */\n      tag_133\n      jump\t// in\n    tag_203:\n        /* \"#utility.yul\":2728:2731   */\n      dup3\n        /* \"#utility.yul\":2721:2758   */\n      mstore\n        /* \"#utility.yul\":2646:2764   */\n      pop\n      pop\n      jump\t// out\n        /* \"#utility.yul\":2770:3434   */\n    tag_35:\n        /* \"#utility.yul\":2975:2979   */\n      0x00\n        /* \"#utility.yul\":3013:3016   */\n      0xa0\n        /* \"#utility.yul\":3002:3011   */\n      dup3\n        /* \"#utility.yul\":2998:3017   */\n      add\n        /* \"#utility.yul\":2990:3017   */\n      swap1\n      pop\n        /* \"#utility.yul\":3027:3098   */\n      tag_205\n        /* \"#utility.yul\":3095:3096   */\n      0x00\n        /* \"#utility.yul\":3084:3093   */\n      dup4\n        /* \"#utility.yul\":3080:3097   */\n      add\n        /* \"#utility.yul\":3071:3077   */\n      dup9\n        /* \"#utility.yul\":3027:3098   */\n      tag_138\n      jump\t// in\n    tag_205:\n        /* \"#utility.yul\":3108:3180   */\n      tag_206\n        /* \"#utility.yul\":3176:3178   */\n      0x20\n        /* \"#utility.yul\":3165:3174   */\n      dup4\n        /* \"#utility.yul\":3161:3179   */\n      add\n        /* \"#utility.yul\":3152:3158   */\n      dup8\n        /* \"#utility.yul\":3108:3180   */\n      tag_138\n      jump\t// in\n    tag_206:\n        /* \"#utility.yul\":3190:3262   */\n      tag_207\n        /* \"#utility.yul\":3258:3260   */\n      0x40\n        /* \"#utility.yul\":3247:3256   */\n      dup4\n        /* \"#utility.yul\":3243:3261   */\n      add\n        /* \"#utility.yul\":3234:3240   */\n      dup7\n        /* \"#utility.yul\":3190:3262   */\n      tag_138\n      jump\t// in\n    tag_207:\n        /* \"#utility.yul\":3272:3344   */\n      tag_208\n        /* \"#utility.yul\":3340:3342   */\n      0x60\n        /* \"#utility.yul\":3329:3338   */\n      dup4\n        /* \"#utility.yul\":3325:3343   */\n      add\n        /* \"#utility.yul\":3316:3322   */\n      dup6\n        /* \"#utility.yul\":3272:3344   */\n      tag_138\n      jump\t// in\n    tag_208:\n        /* \"#utility.yul\":3354:3427   */\n      tag_209\n        /* \"#utility.yul\":3422:3425   */\n      0x80\n        /* \"#utility.yul\":3411:3420   */\n      dup4\n        /* \"#utility.yul\":3407:3426   */\n      add\n        /* \"#utility.yul\":3398:3404   */\n      dup5\n        /* \"#utility.yul\":3354:3427   */\n      tag_139\n      jump\t// in\n    tag_209:\n        /* \"#utility.yul\":2770:3434   */\n      swap7\n      swap6\n      pop\n      pop\n      pop\n      pop\n      pop\n      pop\n      jump\t// out\n        /* \"#utility.yul\":3440:3662   */\n    tag_40:\n        /* \"#utility.yul\":3533:3537   */\n      0x00\n        /* \"#utility.yul\":3571:3573   */\n      0x20\n        /* \"#utility.yul\":3560:3569   */\n      dup3\n        /* \"#utility.yul\":3556:3574   */\n      add\n        /* \"#utility.yul\":3548:3574   */\n      swap1\n      pop\n        /* \"#utility.yul\":3584:3655   */\n      tag_211\n        /* \"#utility.yul\":3652:3653   */\n      0x00\n        /* \"#utility.yul\":3641:3650   */\n      dup4\n        /* \"#utility.yul\":3637:3654   */\n      add\n        /* \"#utility.yul\":3628:3634   */\n      dup5\n        /* \"#utility.yul\":3584:3655   */\n      tag_139\n      jump\t// in\n    tag_211:\n        /* \"#utility.yul\":3440:3662   */\n      swap3\n      swap2\n      pop\n      pop\n      jump\t// out\n        /* \"#utility.yul\":3668:3767   */\n    tag_140:\n        /* \"#utility.yul\":3720:3726   */\n      0x00\n        /* \"#utility.yul\":3754:3759   */\n      dup2\n        /* \"#utility.yul\":3748:3760   */\n      mload\n        /* \"#utility.yul\":3738:3760   */\n      swap1\n      pop\n        /* \"#utility.yul\":3668:3767   */\n      swap2\n      swap1\n      pop\n      jump\t// out\n        /* \"#utility.yul\":3773:3942   */\n    tag_141:\n        /* \"#utility.yul\":3857:3868   */\n      0x00\n        /* \"#utility.yul\":3891:3897   */\n      dup3\n        /* \"#utility.yul\":3886:3889   */\n      dup3\n        /* \"#utility.yul\":3879:3898   */\n      mstore\n        /* \"#utility.yul\":3931:3935   */\n      0x20\n        /* \"#utility.yul\":3926:3929   */\n      dup3\n        /* \"#utility.yul\":3922:3936   */\n      add\n        /* \"#utility.yul\":3907:3936   */\n      swap1\n      pop\n        /* \"#utility.yul\":3773:3942   */\n      swap3\n      swap2\n      pop\n      pop\n      jump\t// out\n        /* \"#utility.yul\":3948:4255   */\n    tag_142:\n        /* \"#utility.yul\":4016:4017   */\n      0x00\n        /* \"#utility.yul\":4026:4139   */\n    tag_215:\n        /* \"#utility.yul\":4040:4046   */\n      dup4\n        /* \"#utility.yul\":4037:4038   */\n      dup2\n        /* \"#utility.yul\":4034:4047   */\n      lt\n        /* \"#utility.yul\":4026:4139   */\n      iszero\n      tag_217\n      jumpi\n        /* \"#utility.yul\":4125:4126   */\n      dup1\n        /* \"#utility.yul\":4120:4123   */\n      dup3\n        /* \"#utility.yul\":4116:4127   */\n      add\n        /* \"#utility.yul\":4110:4128   */\n      mload\n        /* \"#utility.yul\":4106:4107   */\n      dup2\n        /* \"#utility.yul\":4101:4104   */\n      dup5\n        /* \"#utility.yul\":4097:4108   */\n      add\n        /* \"#utility.yul\":4090:4129   */\n      mstore\n        /* \"#utility.yul\":4062:4064   */\n      0x20\n        /* \"#utility.yul\":4059:4060   */\n      dup2\n        /* \"#utility.yul\":4055:4065   */\n      add\n        /* \"#utility.yul\":4050:4065   */\n      swap1\n      pop\n        /* \"#utility.yul\":4026:4139   */\n      jump(tag_215)\n    tag_217:\n        /* \"#utility.yul\":4157:4163   */\n      dup4\n        /* \"#utility.yul\":4154:4155   */\n      dup2\n        /* \"#utility.yul\":4151:4164   */\n      gt\n        /* \"#utility.yul\":4148:4249   */\n      iszero\n      tag_218\n      jumpi\n        /* \"#utility.yul\":4237:4238   */\n      0x00\n        /* \"#utility.yul\":4228:4234   */\n      dup5\n        /* \"#utility.yul\":4223:4226   */\n      dup5\n        /* \"#utility.yul\":4219:4235   */\n      add\n        /* \"#utility.yul\":4212:4239   */\n      mstore\n        /* \"#utility.yul\":4148:4249   */\n    tag_218:\n        /* \"#utility.yul\":3997:4255   */\n      pop\n        /* \"#utility.yul\":3948:4255   */\n      pop\n      pop\n      pop\n      jump\t// out\n        /* \"#utility.yul\":4261:4363   */\n    tag_143:\n        /* \"#utility.yul\":4302:4308   */\n      0x00\n        /* \"#utility.yul\":4353:4355   */\n      0x1f\n        /* \"#utility.yul\":4349:4356   */\n      not\n        /* \"#utility.yul\":4344:4346   */\n      0x1f\n        /* \"#utility.yul\":4337:4342   */\n      dup4\n        /* \"#utility.yul\":4333:4347   */\n      add\n        /* \"#utility.yul\":4329:4357   */\n      and\n        /* \"#utility.yul\":4319:4357   */\n      swap1\n      pop\n        /* \"#utility.yul\":4261:4363   */\n      swap2\n      swap1\n      pop\n      jump\t// out\n        /* \"#utility.yul\":4369:4733   */\n    tag_144:\n        /* \"#utility.yul\":4457:4460   */\n      0x00\n        /* \"#utility.yul\":4485:4524   */\n      tag_221\n        /* \"#utility.yul\":4518:4523   */\n      dup3\n        /* \"#utility.yul\":4485:4524   */\n      tag_140\n      jump\t// in\n    tag_221:\n        /* \"#utility.yul\":4540:4611   */\n      tag_222\n        /* \"#utility.yul\":4604:4610   */\n      dup2\n        /* \"#utility.yul\":4599:4602   */\n      dup6\n        /* \"#utility.yul\":4540:4611   */\n      tag_141\n      jump\t// in\n    tag_222:\n        /* \"#utility.yul\":4533:4611   */\n      swap4\n      pop\n        /* \"#utility.yul\":4620:4672   */\n      tag_223\n        /* \"#utility.yul\":4665:4671   */\n      dup2\n        /* \"#utility.yul\":4660:4663   */\n      dup6\n        /* \"#utility.yul\":4653:4657   */\n      0x20\n        /* \"#utility.yul\":4646:4651   */\n      dup7\n        /* \"#utility.yul\":4642:4658   */\n      add\n        /* \"#utility.yul\":4620:4672   */\n      tag_142\n      jump\t// in\n    tag_223:\n        /* \"#utility.yul\":4697:4726   */\n      tag_224\n        /* \"#utility.yul\":4719:4725   */\n      dup2\n        /* \"#utility.yul\":4697:4726   */\n      tag_143\n      jump\t// in\n    tag_224:\n        /* \"#utility.yul\":4692:4695   */\n      dup5\n        /* \"#utility.yul\":4688:4727   */\n      add\n        /* \"#utility.yul\":4681:4727   */\n      swap2\n      pop\n        /* \"#utility.yul\":4461:4733   */\n      pop\n        /* \"#utility.yul\":4369:4733   */\n      swap3\n      swap2\n      pop\n      pop\n      jump\t// out\n        /* \"#utility.yul\":4739:5482   */\n    tag_46:\n        /* \"#utility.yul\":4958:4962   */\n      0x00\n        /* \"#utility.yul\":4996:4999   */\n      0xa0\n        /* \"#utility.yul\":4985:4994   */\n      dup3\n        /* \"#utility.yul\":4981:5000   */\n      add\n        /* \"#utility.yul\":4973:5000   */\n      swap1\n      pop\n        /* \"#utility.yul\":5046:5055   */\n      dup2\n        /* \"#utility.yul\":5040:5044   */\n      dup2\n        /* \"#utility.yul\":5036:5056   */\n      sub\n        /* \"#utility.yul\":5032:5033   */\n      0x00\n        /* \"#utility.yul\":5021:5030   */\n      dup4\n        /* \"#utility.yul\":5017:5034   */\n      add\n        /* \"#utility.yul\":5010:5057   */\n      mstore\n        /* \"#utility.yul\":5074:5152   */\n      tag_226\n        /* \"#utility.yul\":5147:5151   */\n      dup2\n        /* \"#utility.yul\":5138:5144   */\n      dup9\n        /* \"#utility.yul\":5074:5152   */\n      tag_144\n      jump\t// in\n    tag_226:\n        /* \"#utility.yul\":5066:5152   */\n      swap1\n      pop\n        /* \"#utility.yul\":5162:5234   */\n      tag_227\n        /* \"#utility.yul\":5230:5232   */\n      0x20\n        /* \"#utility.yul\":5219:5228   */\n      dup4\n        /* \"#utility.yul\":5215:5233   */\n      add\n        /* \"#utility.yul\":5206:5212   */\n      dup8\n        /* \"#utility.yul\":5162:5234   */\n      tag_138\n      jump\t// in\n    tag_227:\n        /* \"#utility.yul\":5244:5316   */\n      tag_228\n        /* \"#utility.yul\":5312:5314   */\n      0x40\n        /* \"#utility.yul\":5301:5310   */\n      dup4\n        /* \"#utility.yul\":5297:5315   */\n      add\n        /* \"#utility.yul\":5288:5294   */\n      dup7\n        /* \"#utility.yul\":5244:5316   */\n      tag_139\n      jump\t// in\n    tag_228:\n        /* \"#utility.yul\":5326:5392   */\n      tag_229\n        /* \"#utility.yul\":5388:5390   */\n      0x60\n        /* \"#utility.yul\":5377:5386   */\n      dup4\n        /* \"#utility.yul\":5373:5391   */\n      add\n        /* \"#utility.yul\":5364:5370   */\n      dup6\n        /* \"#utility.yul\":5326:5392   */\n      tag_137\n      jump\t// in\n    tag_229:\n        /* \"#utility.yul\":5402:5475   */\n      tag_230\n        /* \"#utility.yul\":5470:5473   */\n      0x80\n        /* \"#utility.yul\":5459:5468   */\n      dup4\n        /* \"#utility.yul\":5455:5474   */\n      add\n        /* \"#utility.yul\":5446:5452   */\n      dup5\n        /* \"#utility.yul\":5402:5475   */\n      tag_138\n      jump\t// in\n    tag_230:\n        /* \"#utility.yul\":4739:5482   */\n      swap7\n      swap6\n      pop\n      pop\n      pop\n      pop\n      pop\n      pop\n      jump\t// out\n        /* \"#utility.yul\":5488:5605   */\n    tag_145:\n        /* \"#utility.yul\":5597:5598   */\n      0x00\n        /* \"#utility.yul\":5594:5595   */\n      dup1\n        /* \"#utility.yul\":5587:5599   */\n      revert\n        /* \"#utility.yul\":5611:5728   */\n    tag_146:\n        /* \"#utility.yul\":5720:5721   */\n      0x00\n        /* \"#utility.yul\":5717:5718   */\n      dup1\n        /* \"#utility.yul\":5710:5722   */\n      revert\n        /* \"#utility.yul\":5734:5914   */\n    tag_147:\n        /* \"#utility.yul\":5782:5859   */\n      0x4e487b7100000000000000000000000000000000000000000000000000000000\n        /* \"#utility.yul\":5779:5780   */\n      0x00\n        /* \"#utility.yul\":5772:5860   */\n      mstore\n        /* \"#utility.yul\":5879:5883   */\n      0x41\n        /* \"#utility.yul\":5876:5877   */\n      0x04\n        /* \"#utility.yul\":5869:5884   */\n      mstore\n        /* \"#utility.yul\":5903:5907   */\n      0x24\n        /* \"#utility.yul\":5900:5901   */\n      0x00\n        /* \"#utility.yul\":5893:5908   */\n      revert\n        /* \"#utility.yul\":5920:6201   */\n    tag_148:\n        /* \"#utility.yul\":6003:6030   */\n      tag_235\n        /* \"#utility.yul\":6025:6029   */\n      dup3\n        /* \"#utility.yul\":6003:6030   */\n      tag_143\n      jump\t// in\n    tag_235:\n        /* \"#utility.yul\":5995:6001   */\n      dup2\n        /* \"#utility.yul\":5991:6031   */\n      add\n        /* \"#utility.yul\":6133:6139   */\n      dup2\n        /* \"#utility.yul\":6121:6131   */\n      dup2\n        /* \"#utility.yul\":6118:6140   */\n      lt\n        /* \"#utility.yul\":6097:6115   */\n      0xffffffffffffffff\n        /* \"#utility.yul\":6085:6095   */\n      dup3\n        /* \"#utility.yul\":6082:6116   */\n      gt\n        /* \"#utility.yul\":6079:6141   */\n      or\n        /* \"#utility.yul\":6076:6164   */\n      iszero\n      tag_236\n      jumpi\n        /* \"#utility.yul\":6144:6162   */\n      tag_237\n      tag_147\n      jump\t// in\n    tag_237:\n        /* \"#utility.yul\":6076:6164   */\n    tag_236:\n        /* \"#utility.yul\":6184:6194   */\n      dup1\n        /* \"#utility.yul\":6180:6182   */\n      0x40\n        /* \"#utility.yul\":6173:6195   */\n      mstore\n        /* \"#utility.yul\":5963:6201   */\n      pop\n        /* \"#utility.yul\":5920:6201   */\n      pop\n      pop\n      jump\t// out\n        /* \"#utility.yul\":6207:6336   */\n    tag_149:\n        /* \"#utility.yul\":6241:6247   */\n      0x00\n        /* \"#utility.yul\":6268:6288   */\n      tag_239\n      tag_126\n      jump\t// in\n    tag_239:\n        /* \"#utility.yul\":6258:6288   */\n      swap1\n      pop\n        /* \"#utility.yul\":6297:6330   */\n      tag_240\n        /* \"#utility.yul\":6325:6329   */\n      dup3\n        /* \"#utility.yul\":6317:6323   */\n      dup3\n        /* \"#utility.yul\":6297:6330   */\n      tag_148\n      jump\t// in\n    tag_240:\n        /* \"#utility.yul\":6207:6336   */\n      swap2\n      swap1\n      pop\n      jump\t// out\n        /* \"#utility.yul\":6342:6650   */\n    tag_150:\n        /* \"#utility.yul\":6404:6408   */\n      0x00\n        /* \"#utility.yul\":6494:6512   */\n      0xffffffffffffffff\n        /* \"#utility.yul\":6486:6492   */\n      dup3\n        /* \"#utility.yul\":6483:6513   */\n      gt\n        /* \"#utility.yul\":6480:6536   */\n      iszero\n      tag_242\n      jumpi\n        /* \"#utility.yul\":6516:6534   */\n      tag_243\n      tag_147\n      jump\t// in\n    tag_243:\n        /* \"#utility.yul\":6480:6536   */\n    tag_242:\n        /* \"#utility.yul\":6554:6583   */\n      tag_244\n        /* \"#utility.yul\":6576:6582   */\n      dup3\n        /* \"#utility.yul\":6554:6583   */\n      tag_143\n      jump\t// in\n    tag_244:\n        /* \"#utility.yul\":6546:6583   */\n      swap1\n      pop\n        /* \"#utility.yul\":6638:6642   */\n      0x20\n        /* \"#utility.yul\":6632:6636   */\n      dup2\n        /* \"#utility.yul\":6628:6643   */\n      add\n        /* \"#utility.yul\":6620:6643   */\n      swap1\n      pop\n        /* \"#utility.yul\":6342:6650   */\n      swap2\n      swap1\n      pop\n      jump\t// out\n        /* \"#utility.yul\":6656:6810   */\n    tag_151:\n        /* \"#utility.yul\":6740:6746   */\n      dup3\n        /* \"#utility.yul\":6735:6738   */\n      dup2\n        /* \"#utility.yul\":6730:6733   */\n      dup4\n        /* \"#utility.yul\":6717:6747   */\n      calldatacopy\n        /* \"#utility.yul\":6802:6803   */\n      0x00\n        /* \"#utility.yul\":6793:6799   */\n      dup4\n        /* \"#utility.yul\":6788:6791   */\n      dup4\n        /* \"#utility.yul\":6784:6800   */\n      add\n        /* \"#utility.yul\":6777:6804   */\n      mstore\n        /* \"#utility.yul\":6656:6810   */\n      pop\n      pop\n      pop\n      jump\t// out\n        /* \"#utility.yul\":6816:7228   */\n    tag_152:\n        /* \"#utility.yul\":6894:6899   */\n      0x00\n        /* \"#utility.yul\":6919:6985   */\n      tag_247\n        /* \"#utility.yul\":6935:6984   */\n      tag_248\n        /* \"#utility.yul\":6977:6983   */\n      dup5\n        /* \"#utility.yul\":6935:6984   */\n      tag_150\n      jump\t// in\n    tag_248:\n        /* \"#utility.yul\":6919:6985   */\n      tag_149\n      jump\t// in\n    tag_247:\n        /* \"#utility.yul\":6910:6985   */\n      swap1\n      pop\n        /* \"#utility.yul\":7008:7014   */\n      dup3\n        /* \"#utility.yul\":7001:7006   */\n      dup2\n        /* \"#utility.yul\":6994:7015   */\n      mstore\n        /* \"#utility.yul\":7046:7050   */\n      0x20\n        /* \"#utility.yul\":7039:7044   */\n      dup2\n        /* \"#utility.yul\":7035:7051   */\n      add\n        /* \"#utility.yul\":7084:7087   */\n      dup5\n        /* \"#utility.yul\":7075:7081   */\n      dup5\n        /* \"#utility.yul\":7070:7073   */\n      dup5\n        /* \"#utility.yul\":7066:7082   */\n      add\n        /* \"#utility.yul\":7063:7088   */\n      gt\n        /* \"#utility.yul\":7060:7172   */\n      iszero\n      tag_249\n      jumpi\n        /* \"#utility.yul\":7091:7170   */\n      tag_250\n      tag_146\n      jump\t// in\n    tag_250:\n        /* \"#utility.yul\":7060:7172   */\n    tag_249:\n        /* \"#utility.yul\":7181:7222   */\n      tag_251\n        /* \"#utility.yul\":7215:7221   */\n      dup5\n        /* \"#utility.yul\":7210:7213   */\n      dup3\n        /* \"#utility.yul\":7205:7208   */\n      dup6\n        /* \"#utility.yul\":7181:7222   */\n      tag_151\n      jump\t// in\n    tag_251:\n        /* \"#utility.yul\":6900:7228   */\n      pop\n        /* \"#utility.yul\":6816:7228   */\n      swap4\n      swap3\n      pop\n      pop\n      pop\n      jump\t// out\n        /* \"#utility.yul\":7248:7588   */\n    tag_153:\n        /* \"#utility.yul\":7304:7309   */\n      0x00\n        /* \"#utility.yul\":7353:7356   */\n      dup3\n        /* \"#utility.yul\":7346:7350   */\n      0x1f\n        /* \"#utility.yul\":7338:7344   */\n      dup4\n        /* \"#utility.yul\":7334:7351   */\n      add\n        /* \"#utility.yul\":7330:7357   */\n      slt\n        /* \"#utility.yul\":7320:7442   */\n      tag_253\n      jumpi\n        /* \"#utility.yul\":7361:7440   */\n      tag_254\n      tag_145\n      jump\t// in\n    tag_254:\n        /* \"#utility.yul\":7320:7442   */\n    tag_253:\n        /* \"#utility.yul\":7478:7484   */\n      dup2\n        /* \"#utility.yul\":7465:7485   */\n      calldataload\n        /* \"#utility.yul\":7503:7582   */\n      tag_255\n        /* \"#utility.yul\":7578:7581   */\n      dup5\n        /* \"#utility.yul\":7570:7576   */\n      dup3\n        /* \"#utility.yul\":7563:7567   */\n      0x20\n        /* \"#utility.yul\":7555:7561   */\n      dup7\n        /* \"#utility.yul\":7551:7568   */\n      add\n        /* \"#utility.yul\":7503:7582   */\n      tag_152\n      jump\t// in\n    tag_255:\n        /* \"#utility.yul\":7494:7582   */\n      swap2\n      pop\n        /* \"#utility.yul\":7310:7588   */\n      pop\n        /* \"#utility.yul\":7248:7588   */\n      swap3\n      swap2\n      pop\n      pop\n      jump\t// out\n        /* \"#utility.yul\":7594:8393   */\n    tag_54:\n        /* \"#utility.yul\":7681:7687   */\n      0x00\n        /* \"#utility.yul\":7689:7695   */\n      dup1\n        /* \"#utility.yul\":7697:7703   */\n      0x00\n        /* \"#utility.yul\":7746:7748   */\n      0x60\n        /* \"#utility.yul\":7734:7743   */\n      dup5\n        /* \"#utility.yul\":7725:7732   */\n      dup7\n        /* \"#utility.yul\":7721:7744   */\n      sub\n        /* \"#utility.yul\":7717:7749   */\n      slt\n        /* \"#utility.yul\":7714:7833   */\n      iszero\n      tag_257\n      jumpi\n        /* \"#utility.yul\":7752:7831   */\n      tag_258\n      tag_127\n      jump\t// in\n    tag_258:\n        /* \"#utility.yul\":7714:7833   */\n    tag_257:\n        /* \"#utility.yul\":7900:7901   */\n      0x00\n        /* \"#utility.yul\":7889:7898   */\n      dup5\n        /* \"#utility.yul\":7885:7902   */\n      add\n        /* \"#utility.yul\":7872:7903   */\n      calldataload\n        /* \"#utility.yul\":7930:7948   */\n      0xffffffffffffffff\n        /* \"#utility.yul\":7922:7928   */\n      dup2\n        /* \"#utility.yul\":7919:7949   */\n      gt\n        /* \"#utility.yul\":7916:8033   */\n      iszero\n      tag_259\n      jumpi\n        /* \"#utility.yul\":7952:8031   */\n      tag_260\n      tag_128\n      jump\t// in\n    tag_260:\n        /* \"#utility.yul\":7916:8033   */\n    tag_259:\n        /* \"#utility.yul\":8057:8120   */\n      tag_261\n        /* \"#utility.yul\":8112:8119   */\n      dup7\n        /* \"#utility.yul\":8103:8109   */\n      dup3\n        /* \"#utility.yul\":8092:8101   */\n      dup8\n        /* \"#utility.yul\":8088:8110   */\n      add\n        /* \"#utility.yul\":8057:8120   */\n      tag_153\n      jump\t// in\n    tag_261:\n        /* \"#utility.yul\":8047:8120   */\n      swap4\n      pop\n        /* \"#utility.yul\":7843:8130   */\n      pop\n        /* \"#utility.yul\":8169:8171   */\n      0x20\n        /* \"#utility.yul\":8195:8248   */\n      tag_262\n        /* \"#utility.yul\":8240:8247   */\n      dup7\n        /* \"#utility.yul\":8231:8237   */\n      dup3\n        /* \"#utility.yul\":8220:8229   */\n      dup8\n        /* \"#utility.yul\":8216:8238   */\n      add\n        /* \"#utility.yul\":8195:8248   */\n      tag_131\n      jump\t// in\n    tag_262:\n        /* \"#utility.yul\":8185:8248   */\n      swap3\n      pop\n        /* \"#utility.yul\":8140:8258   */\n      pop\n        /* \"#utility.yul\":8297:8299   */\n      0x40\n        /* \"#utility.yul\":8323:8376   */\n      tag_263\n        /* \"#utility.yul\":8368:8375   */\n      dup7\n        /* \"#utility.yul\":8359:8365   */\n      dup3\n        /* \"#utility.yul\":8348:8357   */\n      dup8\n        /* \"#utility.yul\":8344:8366   */\n      add\n        /* \"#utility.yul\":8323:8376   */\n      tag_135\n      jump\t// in\n    tag_263:\n        /* \"#utility.yul\":8313:8376   */\n      swap2\n      pop\n        /* \"#utility.yul\":8268:8386   */\n      pop\n        /* \"#utility.yul\":7594:8393   */\n      swap3\n      pop\n      swap3\n      pop\n      swap3\n      jump\t// out\n        /* \"#utility.yul\":8399:8579   */\n    tag_71:\n        /* \"#utility.yul\":8447:8524   */\n      0x4e487b7100000000000000000000000000000000000000000000000000000000\n        /* \"#utility.yul\":8444:8445   */\n      0x00\n        /* \"#utility.yul\":8437:8525   */\n      mstore\n        /* \"#utility.yul\":8544:8548   */\n      0x32\n        /* \"#utility.yul\":8541:8542   */\n      0x04\n        /* \"#utility.yul\":8534:8549   */\n      mstore\n        /* \"#utility.yul\":8568:8572   */\n      0x24\n        /* \"#utility.yul\":8565:8566   */\n      0x00\n        /* \"#utility.yul\":8558:8573   */\n      revert\n        /* \"#utility.yul\":8585:8805   */\n    tag_154:\n        /* \"#utility.yul\":8725:8759   */\n      0x74686973207265717565737420697320616c72656164792066696e616c697a65\n        /* \"#utility.yul\":8721:8722   */\n      0x00\n        /* \"#utility.yul\":8713:8719   */\n      dup3\n        /* \"#utility.yul\":8709:8723   */\n      add\n        /* \"#utility.yul\":8702:8760   */\n      mstore\n        /* \"#utility.yul\":8794:8797   */\n      0x6400000000000000000000000000000000000000000000000000000000000000\n        /* \"#utility.yul\":8789:8791   */\n      0x20\n        /* \"#utility.yul\":8781:8787   */\n      dup3\n        /* \"#utility.yul\":8777:8792   */\n      add\n        /* \"#utility.yul\":8770:8798   */\n      mstore\n        /* \"#utility.yul\":8585:8805   */\n      pop\n      jump\t// out\n        /* \"#utility.yul\":8811:9177   */\n    tag_155:\n        /* \"#utility.yul\":8953:8956   */\n      0x00\n        /* \"#utility.yul\":8974:9041   */\n      tag_267\n        /* \"#utility.yul\":9038:9040   */\n      0x21\n        /* \"#utility.yul\":9033:9036   */\n      dup4\n        /* \"#utility.yul\":8974:9041   */\n      tag_141\n      jump\t// in\n    tag_267:\n        /* \"#utility.yul\":8967:9041   */\n      swap2\n      pop\n        /* \"#utility.yul\":9050:9143   */\n      tag_268\n        /* \"#utility.yul\":9139:9142   */\n      dup3\n        /* \"#utility.yul\":9050:9143   */\n      tag_154\n      jump\t// in\n    tag_268:\n        /* \"#utility.yul\":9168:9170   */\n      0x40\n        /* \"#utility.yul\":9163:9166   */\n      dup3\n        /* \"#utility.yul\":9159:9171   */\n      add\n        /* \"#utility.yul\":9152:9171   */\n      swap1\n      pop\n        /* \"#utility.yul\":8811:9177   */\n      swap2\n      swap1\n      pop\n      jump\t// out\n        /* \"#utility.yul\":9183:9602   */\n    tag_75:\n        /* \"#utility.yul\":9349:9353   */\n      0x00\n        /* \"#utility.yul\":9387:9389   */\n      0x20\n        /* \"#utility.yul\":9376:9385   */\n      dup3\n        /* \"#utility.yul\":9372:9390   */\n      add\n        /* \"#utility.yul\":9364:9390   */\n      swap1\n      pop\n        /* \"#utility.yul\":9436:9445   */\n      dup2\n        /* \"#utility.yul\":9430:9434   */\n      dup2\n        /* \"#utility.yul\":9426:9446   */\n      sub\n        /* \"#utility.yul\":9422:9423   */\n      0x00\n        /* \"#utility.yul\":9411:9420   */\n      dup4\n        /* \"#utility.yul\":9407:9424   */\n      add\n        /* \"#utility.yul\":9400:9447   */\n      mstore\n        /* \"#utility.yul\":9464:9595   */\n      tag_270\n        /* \"#utility.yul\":9590:9594   */\n      dup2\n        /* \"#utility.yul\":9464:9595   */\n      tag_155\n      jump\t// in\n    tag_270:\n        /* \"#utility.yul\":9456:9595   */\n      swap1\n      pop\n        /* \"#utility.yul\":9183:9602   */\n      swap2\n      swap1\n      pop\n      jump\t// out\n        /* \"#utility.yul\":9608:9788   */\n    tag_156:\n        /* \"#utility.yul\":9656:9733   */\n      0x4e487b7100000000000000000000000000000000000000000000000000000000\n        /* \"#utility.yul\":9653:9654   */\n      0x00\n        /* \"#utility.yul\":9646:9734   */\n      mstore\n        /* \"#utility.yul\":9753:9757   */\n      0x12\n        /* \"#utility.yul\":9750:9751   */\n      0x04\n        /* \"#utility.yul\":9743:9758   */\n      mstore\n        /* \"#utility.yul\":9777:9781   */\n      0x24\n        /* \"#utility.yul\":9774:9775   */\n      0x00\n        /* \"#utility.yul\":9767:9782   */\n      revert\n        /* \"#utility.yul\":9794:9974   */\n    tag_157:\n        /* \"#utility.yul\":9842:9919   */\n      0x4e487b7100000000000000000000000000000000000000000000000000000000\n        /* \"#utility.yul\":9839:9840   */\n      0x00\n        /* \"#utility.yul\":9832:9920   */\n      mstore\n        /* \"#utility.yul\":9939:9943   */\n      0x11\n        /* \"#utility.yul\":9936:9937   */\n      0x04\n        /* \"#utility.yul\":9929:9944   */\n      mstore\n        /* \"#utility.yul\":9963:9967   */\n      0x24\n        /* \"#utility.yul\":9960:9961   */\n      0x00\n        /* \"#utility.yul\":9953:9968   */\n      revert\n        /* \"#utility.yul\":9980:10165   */\n    tag_77:\n        /* \"#utility.yul\":10020:10021   */\n      0x00\n        /* \"#utility.yul\":10037:10057   */\n      tag_274\n        /* \"#utility.yul\":10055:10056   */\n      dup3\n        /* \"#utility.yul\":10037:10057   */\n      tag_129\n      jump\t// in\n    tag_274:\n        /* \"#utility.yul\":10032:10057   */\n      swap2\n      pop\n        /* \"#utility.yul\":10071:10091   */\n      tag_275\n        /* \"#utility.yul\":10089:10090   */\n      dup4\n        /* \"#utility.yul\":10071:10091   */\n      tag_129\n      jump\t// in\n    tag_275:\n        /* \"#utility.yul\":10066:10091   */\n      swap3\n      pop\n        /* \"#utility.yul\":10110:10111   */\n      dup3\n        /* \"#utility.yul\":10100:10135   */\n      tag_276\n      jumpi\n        /* \"#utility.yul\":10115:10133   */\n      tag_277\n      tag_156\n      jump\t// in\n    tag_277:\n        /* \"#utility.yul\":10100:10135   */\n    tag_276:\n        /* \"#utility.yul\":10157:10158   */\n      dup3\n        /* \"#utility.yul\":10154:10155   */\n      dup3\n        /* \"#utility.yul\":10150:10159   */\n      div\n        /* \"#utility.yul\":10145:10159   */\n      swap1\n      pop\n        /* \"#utility.yul\":9980:10165   */\n      swap3\n      swap2\n      pop\n      pop\n      jump\t// out\n        /* \"#utility.yul\":10171:10396   */\n    tag_158:\n        /* \"#utility.yul\":10311:10345   */\n      0x7265717565737420646f6573206e6f74206861766520656e6f75676820617070\n        /* \"#utility.yul\":10307:10308   */\n      0x00\n        /* \"#utility.yul\":10299:10305   */\n      dup3\n        /* \"#utility.yul\":10295:10309   */\n      add\n        /* \"#utility.yul\":10288:10346   */\n      mstore\n        /* \"#utility.yul\":10380:10388   */\n      0x726f76616c730000000000000000000000000000000000000000000000000000\n        /* \"#utility.yul\":10375:10377   */\n      0x20\n        /* \"#utility.yul\":10367:10373   */\n      dup3\n        /* \"#utility.yul\":10363:10378   */\n      add\n        /* \"#utility.yul\":10356:10389   */\n      mstore\n        /* \"#utility.yul\":10171:10396   */\n      pop\n      jump\t// out\n        /* \"#utility.yul\":10402:10768   */\n    tag_159:\n        /* \"#utility.yul\":10544:10547   */\n      0x00\n        /* \"#utility.yul\":10565:10632   */\n      tag_280\n        /* \"#utility.yul\":10629:10631   */\n      0x26\n        /* \"#utility.yul\":10624:10627   */\n      dup4\n        /* \"#utility.yul\":10565:10632   */\n      tag_141\n      jump\t// in\n    tag_280:\n        /* \"#utility.yul\":10558:10632   */\n      swap2\n      pop\n        /* \"#utility.yul\":10641:10734   */\n      tag_281\n        /* \"#utility.yul\":10730:10733   */\n      dup3\n        /* \"#utility.yul\":10641:10734   */\n      tag_158\n      jump\t// in\n    tag_281:\n        /* \"#utility.yul\":10759:10761   */\n      0x40\n        /* \"#utility.yul\":10754:10757   */\n      dup3\n        /* \"#utility.yul\":10750:10762   */\n      add\n        /* \"#utility.yul\":10743:10762   */\n      swap1\n      pop\n        /* \"#utility.yul\":10402:10768   */\n      swap2\n      swap1\n      pop\n      jump\t// out\n        /* \"#utility.yul\":10774:11193   */\n    tag_80:\n        /* \"#utility.yul\":10940:10944   */\n      0x00\n        /* \"#utility.yul\":10978:10980   */\n      0x20\n        /* \"#utility.yul\":10967:10976   */\n      dup3\n        /* \"#utility.yul\":10963:10981   */\n      add\n        /* \"#utility.yul\":10955:10981   */\n      swap1\n      pop\n        /* \"#utility.yul\":11027:11036   */\n      dup2\n        /* \"#utility.yul\":11021:11025   */\n      dup2\n        /* \"#utility.yul\":11017:11037   */\n      sub\n        /* \"#utility.yul\":11013:11014   */\n      0x00\n        /* \"#utility.yul\":11002:11011   */\n      dup4\n        /* \"#utility.yul\":10998:11015   */\n      add\n        /* \"#utility.yul\":10991:11038   */\n      mstore\n        /* \"#utility.yul\":11055:11186   */\n      tag_283\n        /* \"#utility.yul\":11181:11185   */\n      dup2\n        /* \"#utility.yul\":11055:11186   */\n      tag_159\n      jump\t// in\n    tag_283:\n        /* \"#utility.yul\":11047:11186   */\n      swap1\n      pop\n        /* \"#utility.yul\":10774:11193   */\n      swap2\n      swap1\n      pop\n      jump\t// out\n        /* \"#utility.yul\":11199:11379   */\n    tag_160:\n        /* \"#utility.yul\":11247:11324   */\n      0x4e487b7100000000000000000000000000000000000000000000000000000000\n        /* \"#utility.yul\":11244:11245   */\n      0x00\n        /* \"#utility.yul\":11237:11325   */\n      mstore\n        /* \"#utility.yul\":11344:11348   */\n      0x22\n        /* \"#utility.yul\":11341:11342   */\n      0x04\n        /* \"#utility.yul\":11334:11349   */\n      mstore\n        /* \"#utility.yul\":11368:11372   */\n      0x24\n        /* \"#utility.yul\":11365:11366   */\n      0x00\n        /* \"#utility.yul\":11358:11373   */\n      revert\n        /* \"#utility.yul\":11385:11705   */\n    tag_88:\n        /* \"#utility.yul\":11429:11435   */\n      0x00\n        /* \"#utility.yul\":11466:11467   */\n      0x02\n        /* \"#utility.yul\":11460:11464   */\n      dup3\n        /* \"#utility.yul\":11456:11468   */\n      div\n        /* \"#utility.yul\":11446:11468   */\n      swap1\n      pop\n        /* \"#utility.yul\":11513:11514   */\n      0x01\n        /* \"#utility.yul\":11507:11511   */\n      dup3\n        /* \"#utility.yul\":11503:11515   */\n      and\n        /* \"#utility.yul\":11534:11552   */\n      dup1\n        /* \"#utility.yul\":11524:11605   */\n      tag_286\n      jumpi\n        /* \"#utility.yul\":11590:11594   */\n      0x7f\n        /* \"#utility.yul\":11582:11588   */\n      dup3\n        /* \"#utility.yul\":11578:11595   */\n      and\n        /* \"#utility.yul\":11568:11595   */\n      swap2\n      pop\n        /* \"#utility.yul\":11524:11605   */\n    tag_286:\n        /* \"#utility.yul\":11652:11654   */\n      0x20\n        /* \"#utility.yul\":11644:11650   */\n      dup3\n        /* \"#utility.yul\":11641:11655   */\n      lt\n        /* \"#utility.yul\":11621:11639   */\n      dup2\n        /* \"#utility.yul\":11618:11656   */\n      eq\n        /* \"#utility.yul\":11615:11699   */\n      iszero\n      tag_287\n      jumpi\n        /* \"#utility.yul\":11671:11689   */\n      tag_288\n      tag_160\n      jump\t// in\n    tag_288:\n        /* \"#utility.yul\":11615:11699   */\n    tag_287:\n        /* \"#utility.yul\":11436:11705   */\n      pop\n        /* \"#utility.yul\":11385:11705   */\n      swap2\n      swap1\n      pop\n      jump\t// out\n        /* \"#utility.yul\":11711:11888   */\n    tag_161:\n        /* \"#utility.yul\":11851:11880   */\n      0x6d696e696d756d436f6e747269627574696f6e206e6f74206d65740000000000\n        /* \"#utility.yul\":11847:11848   */\n      0x00\n        /* \"#utility.yul\":11839:11845   */\n      dup3\n        /* \"#utility.yul\":11835:11849   */\n      add\n        /* \"#utility.yul\":11828:11881   */\n      mstore\n        /* \"#utility.yul\":11711:11888   */\n      pop\n      jump\t// out\n        /* \"#utility.yul\":11894:12260   */\n    tag_162:\n        /* \"#utility.yul\":12036:12039   */\n      0x00\n        /* \"#utility.yul\":12057:12124   */\n      tag_291\n        /* \"#utility.yul\":12121:12123   */\n      0x1b\n        /* \"#utility.yul\":12116:12119   */\n      dup4\n        /* \"#utility.yul\":12057:12124   */\n      tag_141\n      jump\t// in\n    tag_291:\n        /* \"#utility.yul\":12050:12124   */\n      swap2\n      pop\n        /* \"#utility.yul\":12133:12226   */\n      tag_292\n        /* \"#utility.yul\":12222:12225   */\n      dup3\n        /* \"#utility.yul\":12133:12226   */\n      tag_161\n      jump\t// in\n    tag_292:\n        /* \"#utility.yul\":12251:12253   */\n      0x20\n        /* \"#utility.yul\":12246:12249   */\n      dup3\n        /* \"#utility.yul\":12242:12254   */\n      add\n        /* \"#utility.yul\":12235:12254   */\n      swap1\n      pop\n        /* \"#utility.yul\":11894:12260   */\n      swap2\n      swap1\n      pop\n      jump\t// out\n        /* \"#utility.yul\":12266:12685   */\n    tag_102:\n        /* \"#utility.yul\":12432:12436   */\n      0x00\n        /* \"#utility.yul\":12470:12472   */\n      0x20\n        /* \"#utility.yul\":12459:12468   */\n      dup3\n        /* \"#utility.yul\":12455:12473   */\n      add\n        /* \"#utility.yul\":12447:12473   */\n      swap1\n      pop\n        /* \"#utility.yul\":12519:12528   */\n      dup2\n        /* \"#utility.yul\":12513:12517   */\n      dup2\n        /* \"#utility.yul\":12509:12529   */\n      sub\n        /* \"#utility.yul\":12505:12506   */\n      0x00\n        /* \"#utility.yul\":12494:12503   */\n      dup4\n        /* \"#utility.yul\":12490:12507   */\n      add\n        /* \"#utility.yul\":12483:12530   */\n      mstore\n        /* \"#utility.yul\":12547:12678   */\n      tag_294\n        /* \"#utility.yul\":12673:12677   */\n      dup2\n        /* \"#utility.yul\":12547:12678   */\n      tag_162\n      jump\t// in\n    tag_294:\n        /* \"#utility.yul\":12539:12678   */\n      swap1\n      pop\n        /* \"#utility.yul\":12266:12685   */\n      swap2\n      swap1\n      pop\n      jump\t// out\n        /* \"#utility.yul\":12691:12924   */\n    tag_104:\n        /* \"#utility.yul\":12730:12733   */\n      0x00\n        /* \"#utility.yul\":12753:12777   */\n      tag_296\n        /* \"#utility.yul\":12771:12776   */\n      dup3\n        /* \"#utility.yul\":12753:12777   */\n      tag_129\n      jump\t// in\n    tag_296:\n        /* \"#utility.yul\":12744:12777   */\n      swap2\n      pop\n        /* \"#utility.yul\":12799:12865   */\n      0xffffffffffffffffffffffffffffffffffffffffffffffffffffffffffffffff\n        /* \"#utility.yul\":12792:12797   */\n      dup3\n        /* \"#utility.yul\":12789:12866   */\n      eq\n        /* \"#utility.yul\":12786:12889   */\n      iszero\n      tag_297\n      jumpi\n        /* \"#utility.yul\":12869:12887   */\n      tag_298\n      tag_157\n      jump\t// in\n    tag_298:\n        /* \"#utility.yul\":12786:12889   */\n    tag_297:\n        /* \"#utility.yul\":12916:12917   */\n      0x01\n        /* \"#utility.yul\":12909:12914   */\n      dup3\n        /* \"#utility.yul\":12905:12918   */\n      add\n        /* \"#utility.yul\":12898:12918   */\n      swap1\n      pop\n        /* \"#utility.yul\":12691:12924   */\n      swap2\n      swap1\n      pop\n      jump\t// out\n        /* \"#utility.yul\":12930:13101   */\n    tag_163:\n        /* \"#utility.yul\":13070:13093   */\n      0x73656e64657220646964206e6f7420646f6e6174650000000000000000000000\n        /* \"#utility.yul\":13066:13067   */\n      0x00\n        /* \"#utility.yul\":13058:13064   */\n      dup3\n        /* \"#utility.yul\":13054:13068   */\n      add\n        /* \"#utility.yul\":13047:13094   */\n      mstore\n        /* \"#utility.yul\":12930:13101   */\n      pop\n      jump\t// out\n        /* \"#utility.yul\":13107:13473   */\n    tag_164:\n        /* \"#utility.yul\":13249:13252   */\n      0x00\n        /* \"#utility.yul\":13270:13337   */\n      tag_301\n        /* \"#utility.yul\":13334:13336   */\n      0x15\n        /* \"#utility.yul\":13329:13332   */\n      dup4\n        /* \"#utility.yul\":13270:13337   */\n      tag_141\n      jump\t// in\n    tag_301:\n        /* \"#utility.yul\":13263:13337   */\n      swap2\n      pop\n        /* \"#utility.yul\":13346:13439   */\n      tag_302\n        /* \"#utility.yul\":13435:13438   */\n      dup3\n        /* \"#utility.yul\":13346:13439   */\n      tag_163\n      jump\t// in\n    tag_302:\n        /* \"#utility.yul\":13464:13466   */\n      0x20\n        /* \"#utility.yul\":13459:13462   */\n      dup3\n        /* \"#utility.yul\":13455:13467   */\n      add\n        /* \"#utility.yul\":13448:13467   */\n      swap1\n      pop\n        /* \"#utility.yul\":13107:13473   */\n      swap2\n      swap1\n      pop\n      jump\t// out\n        /* \"#utility.yul\":13479:13898   */\n    tag_111:\n        /* \"#utility.yul\":13645:13649   */\n      0x00\n        /* \"#utility.yul\":13683:13685   */\n      0x20\n        /* \"#utility.yul\":13672:13681   */\n      dup3\n        /* \"#utility.yul\":13668:13686   */\n      add\n        /* \"#utility.yul\":13660:13686   */\n      swap1\n      pop\n        /* \"#utility.yul\":13732:13741   */\n      dup2\n        /* \"#utility.yul\":13726:13730   */\n      dup2\n        /* \"#utility.yul\":13722:13742   */\n      sub\n        /* \"#utility.yul\":13718:13719   */\n      0x00\n        /* \"#utility.yul\":13707:13716   */\n      dup4\n        /* \"#utility.yul\":13703:13720   */\n      add\n        /* \"#utility.yul\":13696:13743   */\n      mstore\n        /* \"#utility.yul\":13760:13891   */\n      tag_304\n        /* \"#utility.yul\":13886:13890   */\n      dup2\n        /* \"#utility.yul\":13760:13891   */\n      tag_164\n      jump\t// in\n    tag_304:\n        /* \"#utility.yul\":13752:13891   */\n      swap1\n      pop\n        /* \"#utility.yul\":13479:13898   */\n      swap2\n      swap1\n      pop\n      jump\t// out\n        /* \"#utility.yul\":13904:14078   */\n    tag_165:\n        /* \"#utility.yul\":14044:14070   */\n      0x73656e6465722068617320616c726561647920766f7465640000000000000000\n        /* \"#utility.yul\":14040:14041   */\n      0x00\n        /* \"#utility.yul\":14032:14038   */\n      dup3\n        /* \"#utility.yul\":14028:14042   */\n      add\n        /* \"#utility.yul\":14021:14071   */\n      mstore\n        /* \"#utility.yul\":13904:14078   */\n      pop\n      jump\t// out\n        /* \"#utility.yul\":14084:14450   */\n    tag_166:\n        /* \"#utility.yul\":14226:14229   */\n      0x00\n        /* \"#utility.yul\":14247:14314   */\n      tag_307\n        /* \"#utility.yul\":14311:14313   */\n      0x18\n        /* \"#utility.yul\":14306:14309   */\n      dup4\n        /* \"#utility.yul\":14247:14314   */\n      tag_141\n      jump\t// in\n    tag_307:\n        /* \"#utility.yul\":14240:14314   */\n      swap2\n      pop\n        /* \"#utility.yul\":14323:14416   */\n      tag_308\n        /* \"#utility.yul\":14412:14415   */\n      dup3\n        /* \"#utility.yul\":14323:14416   */\n      tag_165\n      jump\t// in\n    tag_308:\n        /* \"#utility.yul\":14441:14443   */\n      0x20\n        /* \"#utility.yul\":14436:14439   */\n      dup3\n        /* \"#utility.yul\":14432:14444   */\n      add\n        /* \"#utility.yul\":14425:14444   */\n      swap1\n      pop\n        /* \"#utility.yul\":14084:14450   */\n      swap2\n      swap1\n      pop\n      jump\t// out\n        /* \"#utility.yul\":14456:14875   */\n    tag_114:\n        /* \"#utility.yul\":14622:14626   */\n      0x00\n        /* \"#utility.yul\":14660:14662   */\n      0x20\n        /* \"#utility.yul\":14649:14658   */\n      dup3\n        /* \"#utility.yul\":14645:14663   */\n      add\n        /* \"#utility.yul\":14637:14663   */\n      swap1\n      pop\n        /* \"#utility.yul\":14709:14718   */\n      dup2\n        /* \"#utility.yul\":14703:14707   */\n      dup2\n        /* \"#utility.yul\":14699:14719   */\n      sub\n        /* \"#utility.yul\":14695:14696   */\n      0x00\n        /* \"#utility.yul\":14684:14693   */\n      dup4\n        /* \"#utility.yul\":14680:14697   */\n      add\n        /* \"#utility.yul\":14673:14720   */\n      mstore\n        /* \"#utility.yul\":14737:14868   */\n      tag_310\n        /* \"#utility.yul\":14863:14867   */\n      dup2\n        /* \"#utility.yul\":14737:14868   */\n      tag_166\n      jump\t// in\n    tag_310:\n        /* \"#utility.yul\":14729:14868   */\n      swap1\n      pop\n        /* \"#utility.yul\":14456:14875   */\n      swap2\n      swap1\n      pop\n      jump\t// out\n\n    auxdata: 0xa26469706673582212206c36a0d411ec1242490a8aad8b236f178201a395096d2481817558aae9c1367464736f6c634300080b0033\n}\n",
    "bytecode": {
      "linkReferences": {},
      "object": "60806040523480156200001157600080fd5b50604051620013f5380380620013f583398181016040528101906200003791906200012c565b80600160006101000a81548173ffffffffffffffffffffffffffffffffffffffff021916908373ffffffffffffffffffffffffffffffffffffffff16021790555081600281905550505062000173565b600080fd5b6000819050919050565b620000a1816200008c565b8114620000ad57600080fd5b50565b600081519050620000c18162000096565b92915050565b600073ffffffffffffffffffffffffffffffffffffffff82169050919050565b6000620000f482620000c7565b9050919050565b6200010681620000e7565b81146200011257600080fd5b50565b6000815190506200012681620000fb565b92915050565b6000806040838503121562000146576200014562000087565b5b60006200015685828601620000b0565b9250506020620001698582860162000115565b9150509250929050565b61127280620001836000396000f3fe60806040526004361061009c5760003560e01c806381d12c581161006457806381d12c581461018c57806382fde093146101cd5780638a9cfd55146101f8578063937e09b114610221578063d7bb99ba1461024c578063d7d1bbdb146102565761009c565b806303441006146100a15780630a144391146100ca5780633fad1834146101075780634051ddac14610132578063481c6a7514610161575b600080fd5b3480156100ad57600080fd5b506100c860048036038101906100c39190610a40565b61027f565b005b3480156100d657600080fd5b506100f160048036038101906100ec9190610acb565b610434565b6040516100fe9190610b13565b60405180910390f35b34801561011357600080fd5b5061011c610454565b6040516101299190610b3d565b60405180910390f35b34801561013e57600080fd5b50610147610460565b604051610158959493929190610b67565b60405180910390f35b34801561016d57600080fd5b506101766104a9565b6040516101839190610bba565b60405180910390f35b34801561019857600080fd5b506101b360048036038101906101ae9190610a40565b6104cf565b6040516101c4959493929190610c6e565b60405180910390f35b3480156101d957600080fd5b506101e26105ca565b6040516101ef9190610b3d565b60405180910390f35b34801561020457600080fd5b5061021f600480360381019061021a9190610dfd565b6105d0565b005b34801561022d57600080fd5b506102366106df565b6040516102439190610b3d565b60405180910390f35b6102546106e5565b005b34801561026257600080fd5b5061027d60048036038101906102789190610a40565b61079b565b005b600160009054906101000a900473ffffffffffffffffffffffffffffffffffffffff1673ffffffffffffffffffffffffffffffffffffffff163373ffffffffffffffffffffffffffffffffffffffff16146102d957600080fd5b60008082815481106102ee576102ed610e6c565b5b906000526020600020906005020190508060020160149054906101000a900460ff1615610350576040517f08c379a000000000000000000000000000000000000000000000000000000000815260040161034790610f0d565b60405180910390fd5b600260045461035f9190610f8b565b8160030154116103a4576040517f08c379a000000000000000000000000000000000000000000000000000000000815260040161039b9061102e565b60405180910390fd5b8060020160009054906101000a900473ffffffffffffffffffffffffffffffffffffffff1673ffffffffffffffffffffffffffffffffffffffff166108fc82600101549081150290604051600060405180830381858888f19350505050158015610412573d6000803e3d6000fd5b5060018160020160146101000a81548160ff0219169083151502179055505050565b60036020528060005260406000206000915054906101000a900460ff1681565b60008080549050905090565b600080600080600060025447600080549050600454600160009054906101000a900473ffffffffffffffffffffffffffffffffffffffff16945094509450945094509091929394565b600160009054906101000a900473ffffffffffffffffffffffffffffffffffffffff1681565b600081815481106104df57600080fd5b90600052602060002090600502016000915090508060000180546105029061107d565b80601f016020809104026020016040519081016040528092919081815260200182805461052e9061107d565b801561057b5780601f106105505761010080835404028352916020019161057b565b820191906000526020600020905b81548152906001019060200180831161055e57829003601f168201915b5050505050908060010154908060020160009054906101000a900473ffffffffffffffffffffffffffffffffffffffff16908060020160149054906101000a900460ff16908060030154905085565b60045481565b600160009054906101000a900473ffffffffffffffffffffffffffffffffffffffff1673ffffffffffffffffffffffffffffffffffffffff163373ffffffffffffffffffffffffffffffffffffffff161461062a57600080fd5b600080600181600181540180825580915050039060005260206000209060050201905083816000019080519060200190610665929190610953565b50828160010181905550818160020160006101000a81548173ffffffffffffffffffffffffffffffffffffffff021916908373ffffffffffffffffffffffffffffffffffffffff16021790555060008160020160146101000a81548160ff0219169083151502179055506000816003018190555050505050565b60025481565b6002543411610729576040517f08c379a0000000000000000000000000000000000000000000000000000000008152600401610720906110fb565b60405180910390fd5b6001600360003373ffffffffffffffffffffffffffffffffffffffff1673ffffffffffffffffffffffffffffffffffffffff16815260200190815260200160002060006101000a81548160ff021916908315150217905550600460008154809291906107949061111b565b9190505550565b60008082815481106107b0576107af610e6c565b5b90600052602060002090600502019050600360003373ffffffffffffffffffffffffffffffffffffffff1673ffffffffffffffffffffffffffffffffffffffff16815260200190815260200160002060009054906101000a900460ff1661084c576040517f08c379a0000000000000000000000000000000000000000000000000000000008152600401610843906111b0565b60405180910390fd5b8060040160003373ffffffffffffffffffffffffffffffffffffffff1673ffffffffffffffffffffffffffffffffffffffff16815260200190815260200160002060009054906101000a900460ff16156108db576040517f08c379a00000000000000000000000000000000000000000000000000000000081526004016108d29061121c565b60405180910390fd5b8060030160008154809291906108f09061111b565b919050555060018160040160003373ffffffffffffffffffffffffffffffffffffffff1673ffffffffffffffffffffffffffffffffffffffff16815260200190815260200160002060006101000a81548160ff0219169083151502179055505050565b82805461095f9061107d565b90600052602060002090601f01602090048101928261098157600085556109c8565b82601f1061099a57805160ff19168380011785556109c8565b828001600101855582156109c8579182015b828111156109c75782518255916020019190600101906109ac565b5b5090506109d591906109d9565b5090565b5b808211156109f25760008160009055506001016109da565b5090565b6000604051905090565b600080fd5b600080fd5b6000819050919050565b610a1d81610a0a565b8114610a2857600080fd5b50565b600081359050610a3a81610a14565b92915050565b600060208284031215610a5657610a55610a00565b5b6000610a6484828501610a2b565b91505092915050565b600073ffffffffffffffffffffffffffffffffffffffff82169050919050565b6000610a9882610a6d565b9050919050565b610aa881610a8d565b8114610ab357600080fd5b50565b600081359050610ac581610a9f565b92915050565b600060208284031215610ae157610ae0610a00565b5b6000610aef84828501610ab6565b91505092915050565b60008115159050919050565b610b0d81610af8565b82525050565b6000602082019050610b286000830184610b04565b92915050565b610b3781610a0a565b82525050565b6000602082019050610b526000830184610b2e565b92915050565b610b6181610a8d565b82525050565b600060a082019050610b7c6000830188610b2e565b610b896020830187610b2e565b610b966040830186610b2e565b610ba36060830185610b2e565b610bb06080830184610b58565b9695505050505050565b6000602082019050610bcf6000830184610b58565b92915050565b600081519050919050565b600082825260208201905092915050565b60005b83811015610c0f578082015181840152602081019050610bf4565b83811115610c1e576000848401525b50505050565b6000601f19601f8301169050919050565b6000610c4082610bd5565b610c4a8185610be0565b9350610c5a818560208601610bf1565b610c6381610c24565b840191505092915050565b600060a0820190508181036000830152610c888188610c35565b9050610c976020830187610b2e565b610ca46040830186610b58565b610cb16060830185610b04565b610cbe6080830184610b2e565b9695505050505050565b600080fd5b600080fd5b7f4e487b7100000000000000000000000000000000000000000000000000000000600052604160045260246000fd5b610d0a82610c24565b810181811067ffffffffffffffff82111715610d2957610d28610cd2565b5b80604052505050565b6000610d3c6109f6565b9050610d488282610d01565b919050565b600067ffffffffffffffff821115610d6857610d67610cd2565b5b610d7182610c24565b9050602081019050919050565b82818337600083830152505050565b6000610da0610d9b84610d4d565b610d32565b905082815260208101848484011115610dbc57610dbb610ccd565b5b610dc7848285610d7e565b509392505050565b600082601f830112610de457610de3610cc8565b5b8135610df4848260208601610d8d565b91505092915050565b600080600060608486031215610e1657610e15610a00565b5b600084013567ffffffffffffffff811115610e3457610e33610a05565b5b610e4086828701610dcf565b9350506020610e5186828701610a2b565b9250506040610e6286828701610ab6565b9150509250925092565b7f4e487b7100000000000000000000000000000000000000000000000000000000600052603260045260246000fd5b7f74686973207265717565737420697320616c72656164792066696e616c697a6560008201527f6400000000000000000000000000000000000000000000000000000000000000602082015250565b6000610ef7602183610be0565b9150610f0282610e9b565b604082019050919050565b60006020820190508181036000830152610f2681610eea565b9050919050565b7f4e487b7100000000000000000000000000000000000000000000000000000000600052601260045260246000fd5b7f4e487b7100000000000000000000000000000000000000000000000000000000600052601160045260246000fd5b6000610f9682610a0a565b9150610fa183610a0a565b925082610fb157610fb0610f2d565b5b828204905092915050565b7f7265717565737420646f6573206e6f74206861766520656e6f7567682061707060008201527f726f76616c730000000000000000000000000000000000000000000000000000602082015250565b6000611018602683610be0565b915061102382610fbc565b604082019050919050565b600060208201905081810360008301526110478161100b565b9050919050565b7f4e487b7100000000000000000000000000000000000000000000000000000000600052602260045260246000fd5b6000600282049050600182168061109557607f821691505b602082108114156110a9576110a861104e565b5b50919050565b7f6d696e696d756d436f6e747269627574696f6e206e6f74206d65740000000000600082015250565b60006110e5601b83610be0565b91506110f0826110af565b602082019050919050565b60006020820190508181036000830152611114816110d8565b9050919050565b600061112682610a0a565b91507fffffffffffffffffffffffffffffffffffffffffffffffffffffffffffffffff82141561115957611158610f5c565b5b600182019050919050565b7f73656e64657220646964206e6f7420646f6e6174650000000000000000000000600082015250565b600061119a601583610be0565b91506111a582611164565b602082019050919050565b600060208201905081810360008301526111c98161118d565b9050919050565b7f73656e6465722068617320616c726561647920766f7465640000000000000000600082015250565b6000611206601883610be0565b9150611211826111d0565b602082019050919050565b60006020820190508181036000830152611235816111f9565b905091905056fea26469706673582212206c36a0d411ec1242490a8aad8b236f178201a395096d2481817558aae9c1367464736f6c634300080b0033",
      "opcodes": "PUSH1 0x80 PUSH1 0x40 MSTORE CALLVALUE DUP1 ISZERO PUSH3 0x11 JUMPI PUSH1 0x0 DUP1 REVERT JUMPDEST POP PUSH1 0x40 MLOAD PUSH3 0x13F5 CODESIZE SUB DUP1 PUSH3 0x13F5 DUP4 CODECOPY DUP2 DUP2 ADD PUSH1 0x40 MSTORE DUP2 ADD SWAP1 PUSH3 0x37 SWAP2 SWAP1 PUSH3 0x12C JUMP JUMPDEST DUP1 PUSH1 0x1 PUSH1 0x0 PUSH2 0x100 EXP DUP2 SLOAD DUP2 PUSH20 0xFFFFFFFFFFFFFFFFFFFFFFFFFFFFFFFFFFFFFFFF MUL NOT AND SWAP1 DUP4 PUSH20 0xFFFFFFFFFFFFFFFFFFFFFFFFFFFFFFFFFFFFFFFF AND MUL OR SWAP1 SSTORE POP DUP2 PUSH1 0x2 DUP2 SWAP1 SSTORE POP POP POP PUSH3 0x173 JUMP JUMPDEST PUSH1 0x0 DUP1 REVERT JUMPDEST PUSH1 0x0 DUP2 SWAP1 POP SWAP2 SWAP1 POP JUMP JUMPDEST PUSH3 0xA1 DUP2 PUSH3 0x8C JUMP JUMPDEST DUP2 EQ PUSH3 0xAD JUMPI PUSH1 0x0 DUP1 REVERT JUMPDEST POP JUMP JUMPDEST PUSH1 0x0 DUP2 MLOAD SWAP1 POP PUSH3 0xC1 DUP2 PUSH3 0x96 JUMP JUMPDEST SWAP3 SWAP2 POP POP JUMP JUMPDEST PUSH1 0x0 PUSH20 0xFFFFFFFFFFFFFFFFFFFFFFFFFFFFFFFFFFFFFFFF DUP3 AND SWAP1 POP SWAP2 SWAP1 POP JUMP JUMPDEST PUSH1 0x0 PUSH3 0xF4 DUP3 PUSH3 0xC7 JUMP JUMPDEST SWAP1 POP SWAP2 SWAP1 POP JUMP JUMPDEST PUSH3 0x106 DUP2 PUSH3 0xE7 JUMP JUMPDEST DUP2 EQ PUSH3 0x112 JUMPI PUSH1 0x0 DUP1 REVERT JUMPDEST POP JUMP JUMPDEST PUSH1 0x0 DUP2 MLOAD SWAP1 POP PUSH3 0x126 DUP2 PUSH3 0xFB JUMP JUMPDEST SWAP3 SWAP2 POP POP JUMP JUMPDEST PUSH1 0x0 DUP1 PUSH1 0x40 DUP4 DUP6 SUB SLT ISZERO PUSH3 0x146 JUMPI PUSH3 0x145 PUSH3 0x87 JUMP JUMPDEST JUMPDEST PUSH1 0x0 PUSH3 0x156 DUP6 DUP3 DUP7 ADD PUSH3 0xB0 JUMP JUMPDEST SWAP3 POP POP PUSH1 0x20 PUSH3 0x169 DUP6 DUP3 DUP7 ADD PUSH3 0x115 JUMP JUMPDEST SWAP2 POP POP SWAP3 POP SWAP3 SWAP1 POP JUMP JUMPDEST PUSH2 0x1272 DUP1 PUSH3 0x183 PUSH1 0x0 CODECOPY PUSH1 0x0 RETURN INVALID PUSH1 0x80 PUSH1 0x40 MSTORE PUSH1 0x4 CALLDATASIZE LT PUSH2 0x9C JUMPI PUSH1 0x0 CALLDATALOAD PUSH1 0xE0 SHR DUP1 PUSH4 0x81D12C58 GT PUSH2 0x64 JUMPI DUP1 PUSH4 0x81D12C58 EQ PUSH2 0x18C JUMPI DUP1 PUSH4 0x82FDE093 EQ PUSH2 0x1CD JUMPI DUP1 PUSH4 0x8A9CFD55 EQ PUSH2 0x1F8 JUMPI DUP1 PUSH4 0x937E09B1 EQ PUSH2 0x221 JUMPI DUP1 PUSH4 0xD7BB99BA EQ PUSH2 0x24C JUMPI DUP1 PUSH4 0xD7D1BBDB EQ PUSH2 0x256 JUMPI PUSH2 0x9C JUMP JUMPDEST DUP1 PUSH4 0x3441006 EQ PUSH2 0xA1 JUMPI DUP1 PUSH4 0xA144391 EQ PUSH2 0xCA JUMPI DUP1 PUSH4 0x3FAD1834 EQ PUSH2 0x107 JUMPI DUP1 PUSH4 0x4051DDAC EQ PUSH2 0x132 JUMPI DUP1 PUSH4 0x481C6A75 EQ PUSH2 0x161 JUMPI JUMPDEST PUSH1 0x0 DUP1 REVERT JUMPDEST CALLVALUE DUP1 ISZERO PUSH2 0xAD JUMPI PUSH1 0x0 DUP1 REVERT JUMPDEST POP PUSH2 0xC8 PUSH1 0x4 DUP1 CALLDATASIZE SUB DUP2 ADD SWAP1 PUSH2 0xC3 SWAP2 SWAP1 PUSH2 0xA40 JUMP JUMPDEST PUSH2 0x27F JUMP JUMPDEST STOP JUMPDEST CALLVALUE DUP1 ISZERO PUSH2 0xD6 JUMPI PUSH1 0x0 DUP1 REVERT JUMPDEST POP PUSH2 0xF1 PUSH1 0x4 DUP1 CALLDATASIZE SUB DUP2 ADD SWAP1 PUSH2 0xEC SWAP2 SWAP1 PUSH2 0xACB JUMP JUMPDEST PUSH2 0x434 JUMP JUMPDEST PUSH1 0x40 MLOAD PUSH2 0xFE SWAP2 SWAP1 PUSH2 0xB13 JUMP JUMPDEST PUSH1 0x40 MLOAD DUP1 SWAP2 SUB SWAP1 RETURN JUMPDEST CALLVALUE DUP1 ISZERO PUSH2 0x113 JUMPI PUSH1 0x0 DUP1 REVERT JUMPDEST POP PUSH2 0x11C PUSH2 0x454 JUMP JUMPDEST PUSH1 0x40 MLOAD PUSH2 0x129 SWAP2 SWAP1 PUSH2 0xB3D JUMP JUMPDEST PUSH1 0x40 MLOAD DUP1 SWAP2 SUB SWAP1 RETURN JUMPDEST CALLVALUE DUP1 ISZERO PUSH2 0x13E JUMPI PUSH1 0x0 DUP1 REVERT JUMPDEST POP PUSH2 0x147 PUSH2 0x460 JUMP JUMPDEST PUSH1 0x40 MLOAD PUSH2 0x158 SWAP6 SWAP5 SWAP4 SWAP3 SWAP2 SWAP1 PUSH2 0xB67 JUMP JUMPDEST PUSH1 0x40 MLOAD DUP1 SWAP2 SUB SWAP1 RETURN JUMPDEST CALLVALUE DUP1 ISZERO PUSH2 0x16D JUMPI PUSH1 0x0 DUP1 REVERT JUMPDEST POP PUSH2 0x176 PUSH2 0x4A9 JUMP JUMPDEST PUSH1 0x40 MLOAD PUSH2 0x183 SWAP2 SWAP1 PUSH2 0xBBA JUMP JUMPDEST PUSH1 0x40 MLOAD DUP1 SWAP2 SUB SWAP1 RETURN JUMPDEST CALLVALUE DUP1 ISZERO PUSH2 0x198 JUMPI PUSH1 0x0 DUP1 REVERT JUMPDEST POP PUSH2 0x1B3 PUSH1 0x4 DUP1 CALLDATASIZE SUB DUP2 ADD SWAP1 PUSH2 0x1AE SWAP2 SWAP1 PUSH2 0xA40 JUMP JUMPDEST PUSH2 0x4CF JUMP JUMPDEST PUSH1 0x40 MLOAD PUSH2 0x1C4 SWAP6 SWAP5 SWAP4 SWAP3 SWAP2 SWAP1 PUSH2 0xC6E JUMP JUMPDEST PUSH1 0x40 MLOAD DUP1 SWAP2 SUB SWAP1 RETURN JUMPDEST CALLVALUE DUP1 ISZERO PUSH2 0x1D9 JUMPI PUSH1 0x0 DUP1 REVERT JUMPDEST POP PUSH2 0x1E2 PUSH2 0x5CA JUMP JUMPDEST PUSH1 0x40 MLOAD PUSH2 0x1EF SWAP2 SWAP1 PUSH2 0xB3D JUMP JUMPDEST PUSH1 0x40 MLOAD DUP1 SWAP2 SUB SWAP1 RETURN JUMPDEST CALLVALUE DUP1 ISZERO PUSH2 0x204 JUMPI PUSH1 0x0 DUP1 REVERT JUMPDEST POP PUSH2 0x21F PUSH1 0x4 DUP1 CALLDATASIZE SUB DUP2 ADD SWAP1 PUSH2 0x21A SWAP2 SWAP1 PUSH2 0xDFD JUMP JUMPDEST PUSH2 0x5D0 JUMP JUMPDEST STOP JUMPDEST CALLVALUE DUP1 ISZERO PUSH2 0x22D JUMPI PUSH1 0x0 DUP1 REVERT JUMPDEST POP PUSH2 0x236 PUSH2 0x6DF JUMP JUMPDEST PUSH1 0x40 MLOAD PUSH2 0x243 SWAP2 SWAP1 PUSH2 0xB3D JUMP JUMPDEST PUSH1 0x40 MLOAD DUP1 SWAP2 SUB SWAP1 RETURN JUMPDEST PUSH2 0x254 PUSH2 0x6E5 JUMP JUMPDEST STOP JUMPDEST CALLVALUE DUP1 ISZERO PUSH2 0x262 JUMPI PUSH1 0x0 DUP1 REVERT JUMPDEST POP PUSH2 0x27D PUSH1 0x4 DUP1 CALLDATASIZE SUB DUP2 ADD SWAP1 PUSH2 0x278 SWAP2 SWAP1 PUSH2 0xA40 JUMP JUMPDEST PUSH2 0x79B JUMP JUMPDEST STOP JUMPDEST PUSH1 0x1 PUSH1 0x0 SWAP1 SLOAD SWAP1 PUSH2 0x100 EXP SWAP1 DIV PUSH20 0xFFFFFFFFFFFFFFFFFFFFFFFFFFFFFFFFFFFFFFFF AND PUSH20 0xFFFFFFFFFFFFFFFFFFFFFFFFFFFFFFFFFFFFFFFF AND CALLER PUSH20 0xFFFFFFFFFFFFFFFFFFFFFFFFFFFFFFFFFFFFFFFF AND EQ PUSH2 0x2D9 JUMPI PUSH1 0x0 DUP1 REVERT JUMPDEST PUSH1 0x0 DUP1 DUP3 DUP2 SLOAD DUP2 LT PUSH2 0x2EE JUMPI PUSH2 0x2ED PUSH2 0xE6C JUMP JUMPDEST JUMPDEST SWAP1 PUSH1 0x0 MSTORE PUSH1 0x20 PUSH1 0x0 KECCAK256 SWAP1 PUSH1 0x5 MUL ADD SWAP1 POP DUP1 PUSH1 0x2 ADD PUSH1 0x14 SWAP1 SLOAD SWAP1 PUSH2 0x100 EXP SWAP1 DIV PUSH1 0xFF AND ISZERO PUSH2 0x350 JUMPI PUSH1 0x40 MLOAD PUSH32 0x8C379A000000000000000000000000000000000000000000000000000000000 DUP2 MSTORE PUSH1 0x4 ADD PUSH2 0x347 SWAP1 PUSH2 0xF0D JUMP JUMPDEST PUSH1 0x40 MLOAD DUP1 SWAP2 SUB SWAP1 REVERT JUMPDEST PUSH1 0x2 PUSH1 0x4 SLOAD PUSH2 0x35F SWAP2 SWAP1 PUSH2 0xF8B JUMP JUMPDEST DUP2 PUSH1 0x3 ADD SLOAD GT PUSH2 0x3A4 JUMPI PUSH1 0x40 MLOAD PUSH32 0x8C379A000000000000000000000000000000000000000000000000000000000 DUP2 MSTORE PUSH1 0x4 ADD PUSH2 0x39B SWAP1 PUSH2 0x102E JUMP JUMPDEST PUSH1 0x40 MLOAD DUP1 SWAP2 SUB SWAP1 REVERT JUMPDEST DUP1 PUSH1 0x2 ADD PUSH1 0x0 SWAP1 SLOAD SWAP1 PUSH2 0x100 EXP SWAP1 DIV PUSH20 0xFFFFFFFFFFFFFFFFFFFFFFFFFFFFFFFFFFFFFFFF AND PUSH20 0xFFFFFFFFFFFFFFFFFFFFFFFFFFFFFFFFFFFFFFFF AND PUSH2 0x8FC DUP3 PUSH1 0x1 ADD SLOAD SWAP1 DUP2 ISZERO MUL SWAP1 PUSH1 0x40 MLOAD PUSH1 0x0 PUSH1 0x40 MLOAD DUP1 DUP4 SUB DUP2 DUP6 DUP9 DUP9 CALL SWAP4 POP POP POP POP ISZERO DUP1 ISZERO PUSH2 0x412 JUMPI RETURNDATASIZE PUSH1 0x0 DUP1 RETURNDATACOPY RETURNDATASIZE PUSH1 0x0 REVERT JUMPDEST POP PUSH1 0x1 DUP2 PUSH1 0x2 ADD PUSH1 0x14 PUSH2 0x100 EXP DUP2 SLOAD DUP2 PUSH1 0xFF MUL NOT AND SWAP1 DUP4 ISZERO ISZERO MUL OR SWAP1 SSTORE POP POP POP JUMP JUMPDEST PUSH1 0x3 PUSH1 0x20 MSTORE DUP1 PUSH1 0x0 MSTORE PUSH1 0x40 PUSH1 0x0 KECCAK256 PUSH1 0x0 SWAP2 POP SLOAD SWAP1 PUSH2 0x100 EXP SWAP1 DIV PUSH1 0xFF AND DUP2 JUMP JUMPDEST PUSH1 0x0 DUP1 DUP1 SLOAD SWAP1 POP SWAP1 POP SWAP1 JUMP JUMPDEST PUSH1 0x0 DUP1 PUSH1 0x0 DUP1 PUSH1 0x0 PUSH1 0x2 SLOAD SELFBALANCE PUSH1 0x0 DUP1 SLOAD SWAP1 POP PUSH1 0x4 SLOAD PUSH1 0x1 PUSH1 0x0 SWAP1 SLOAD SWAP1 PUSH2 0x100 EXP SWAP1 DIV PUSH20 0xFFFFFFFFFFFFFFFFFFFFFFFFFFFFFFFFFFFFFFFF AND SWAP5 POP SWAP5 POP SWAP5 POP SWAP5 POP SWAP5 POP SWAP1 SWAP2 SWAP3 SWAP4 SWAP5 JUMP JUMPDEST PUSH1 0x1 PUSH1 0x0 SWAP1 SLOAD SWAP1 PUSH2 0x100 EXP SWAP1 DIV PUSH20 0xFFFFFFFFFFFFFFFFFFFFFFFFFFFFFFFFFFFFFFFF AND DUP2 JUMP JUMPDEST PUSH1 0x0 DUP2 DUP2 SLOAD DUP2 LT PUSH2 0x4DF JUMPI PUSH1 0x0 DUP1 REVERT JUMPDEST SWAP1 PUSH1 0x0 MSTORE PUSH1 0x20 PUSH1 0x0 KECCAK256 SWAP1 PUSH1 0x5 MUL ADD PUSH1 0x0 SWAP2 POP SWAP1 POP DUP1 PUSH1 0x0 ADD DUP1 SLOAD PUSH2 0x502 SWAP1 PUSH2 0x107D JUMP JUMPDEST DUP1 PUSH1 0x1F ADD PUSH1 0x20 DUP1 SWAP2 DIV MUL PUSH1 0x20 ADD PUSH1 0x40 MLOAD SWAP1 DUP2 ADD PUSH1 0x40 MSTORE DUP1 SWAP3 SWAP2 SWAP1 DUP2 DUP2 MSTORE PUSH1 0x20 ADD DUP3 DUP1 SLOAD PUSH2 0x52E SWAP1 PUSH2 0x107D JUMP JUMPDEST DUP1 ISZERO PUSH2 0x57B JUMPI DUP1 PUSH1 0x1F LT PUSH2 0x550 JUMPI PUSH2 0x100 DUP1 DUP4 SLOAD DIV MUL DUP4 MSTORE SWAP2 PUSH1 0x20 ADD SWAP2 PUSH2 0x57B JUMP JUMPDEST DUP3 ADD SWAP2 SWAP1 PUSH1 0x0 MSTORE PUSH1 0x20 PUSH1 0x0 KECCAK256 SWAP1 JUMPDEST DUP2 SLOAD DUP2 MSTORE SWAP1 PUSH1 0x1 ADD SWAP1 PUSH1 0x20 ADD DUP1 DUP4 GT PUSH2 0x55E JUMPI DUP3 SWAP1 SUB PUSH1 0x1F AND DUP3 ADD SWAP2 JUMPDEST POP POP POP POP POP SWAP1 DUP1 PUSH1 0x1 ADD SLOAD SWAP1 DUP1 PUSH1 0x2 ADD PUSH1 0x0 SWAP1 SLOAD SWAP1 PUSH2 0x100 EXP SWAP1 DIV PUSH20 0xFFFFFFFFFFFFFFFFFFFFFFFFFFFFFFFFFFFFFFFF AND SWAP1 DUP1 PUSH1 0x2 ADD PUSH1 0x14 SWAP1 SLOAD SWAP1 PUSH2 0x100 EXP SWAP1 DIV PUSH1 0xFF AND SWAP1 DUP1 PUSH1 0x3 ADD SLOAD SWAP1 POP DUP6 JUMP JUMPDEST PUSH1 0x4 SLOAD DUP2 JUMP JUMPDEST PUSH1 0x1 PUSH1 0x0 SWAP1 SLOAD SWAP1 PUSH2 0x100 EXP SWAP1 DIV PUSH20 0xFFFFFFFFFFFFFFFFFFFFFFFFFFFFFFFFFFFFFFFF AND PUSH20 0xFFFFFFFFFFFFFFFFFFFFFFFFFFFFFFFFFFFFFFFF AND CALLER PUSH20 0xFFFFFFFFFFFFFFFFFFFFFFFFFFFFFFFFFFFFFFFF AND EQ PUSH2 0x62A JUMPI PUSH1 0x0 DUP1 REVERT JUMPDEST PUSH1 0x0 DUP1 PUSH1 0x1 DUP2 PUSH1 0x1 DUP2 SLOAD ADD DUP1 DUP3 SSTORE DUP1 SWAP2 POP POP SUB SWAP1 PUSH1 0x0 MSTORE PUSH1 0x20 PUSH1 0x0 KECCAK256 SWAP1 PUSH1 0x5 MUL ADD SWAP1 POP DUP4 DUP2 PUSH1 0x0 ADD SWAP1 DUP1 MLOAD SWAP1 PUSH1 0x20 ADD SWAP1 PUSH2 0x665 SWAP3 SWAP2 SWAP1 PUSH2 0x953 JUMP JUMPDEST POP DUP3 DUP2 PUSH1 0x1 ADD DUP2 SWAP1 SSTORE POP DUP2 DUP2 PUSH1 0x2 ADD PUSH1 0x0 PUSH2 0x100 EXP DUP2 SLOAD DUP2 PUSH20 0xFFFFFFFFFFFFFFFFFFFFFFFFFFFFFFFFFFFFFFFF MUL NOT AND SWAP1 DUP4 PUSH20 0xFFFFFFFFFFFFFFFFFFFFFFFFFFFFFFFFFFFFFFFF AND MUL OR SWAP1 SSTORE POP PUSH1 0x0 DUP2 PUSH1 0x2 ADD PUSH1 0x14 PUSH2 0x100 EXP DUP2 SLOAD DUP2 PUSH1 0xFF MUL NOT AND SWAP1 DUP4 ISZERO ISZERO MUL OR SWAP1 SSTORE POP PUSH1 0x0 DUP2 PUSH1 0x3 ADD DUP2 SWAP1 SSTORE POP POP POP POP POP JUMP JUMPDEST PUSH1 0x2 SLOAD DUP2 JUMP JUMPDEST PUSH1 0x2 SLOAD CALLVALUE GT PUSH2 0x729 JUMPI PUSH1 0x40 MLOAD PUSH32 0x8C379A000000000000000000000000000000000000000000000000000000000 DUP2 MSTORE PUSH1 0x4 ADD PUSH2 0x720 SWAP1 PUSH2 0x10FB JUMP JUMPDEST PUSH1 0x40 MLOAD DUP1 SWAP2 SUB SWAP1 REVERT JUMPDEST PUSH1 0x1 PUSH1 0x3 PUSH1 0x0 CALLER PUSH20 0xFFFFFFFFFFFFFFFFFFFFFFFFFFFFFFFFFFFFFFFF AND PUSH20 0xFFFFFFFFFFFFFFFFFFFFFFFFFFFFFFFFFFFFFFFF AND DUP2 MSTORE PUSH1 0x20 ADD SWAP1 DUP2 MSTORE PUSH1 0x20 ADD PUSH1 0x0 KECCAK256 PUSH1 0x0 PUSH2 0x100 EXP DUP2 SLOAD DUP2 PUSH1 0xFF MUL NOT AND SWAP1 DUP4 ISZERO ISZERO MUL OR SWAP1 SSTORE POP PUSH1 0x4 PUSH1 0x0 DUP2 SLOAD DUP1 SWAP3 SWAP2 SWAP1 PUSH2 0x794 SWAP1 PUSH2 0x111B JUMP JUMPDEST SWAP2 SWAP1 POP SSTORE POP JUMP JUMPDEST PUSH1 0x0 DUP1 DUP3 DUP2 SLOAD DUP2 LT PUSH2 0x7B0 JUMPI PUSH2 0x7AF PUSH2 0xE6C JUMP JUMPDEST JUMPDEST SWAP1 PUSH1 0x0 MSTORE PUSH1 0x20 PUSH1 0x0 KECCAK256 SWAP1 PUSH1 0x5 MUL ADD SWAP1 POP PUSH1 0x3 PUSH1 0x0 CALLER PUSH20 0xFFFFFFFFFFFFFFFFFFFFFFFFFFFFFFFFFFFFFFFF AND PUSH20 0xFFFFFFFFFFFFFFFFFFFFFFFFFFFFFFFFFFFFFFFF AND DUP2 MSTORE PUSH1 0x20 ADD SWAP1 DUP2 MSTORE PUSH1 0x20 ADD PUSH1 0x0 KECCAK256 PUSH1 0x0 SWAP1 SLOAD SWAP1 PUSH2 0x100 EXP SWAP1 DIV PUSH1 0xFF AND PUSH2 0x84C JUMPI PUSH1 0x40 MLOAD PUSH32 0x8C379A000000000000000000000000000000000000000000000000000000000 DUP2 MSTORE PUSH1 0x4 ADD PUSH2 0x843 SWAP1 PUSH2 0x11B0 JUMP JUMPDEST PUSH1 0x40 MLOAD DUP1 SWAP2 SUB SWAP1 REVERT JUMPDEST DUP1 PUSH1 0x4 ADD PUSH1 0x0 CALLER PUSH20 0xFFFFFFFFFFFFFFFFFFFFFFFFFFFFFFFFFFFFFFFF AND PUSH20 0xFFFFFFFFFFFFFFFFFFFFFFFFFFFFFFFFFFFFFFFF AND DUP2 MSTORE PUSH1 0x20 ADD SWAP1 DUP2 MSTORE PUSH1 0x20 ADD PUSH1 0x0 KECCAK256 PUSH1 0x0 SWAP1 SLOAD SWAP1 PUSH2 0x100 EXP SWAP1 DIV PUSH1 0xFF AND ISZERO PUSH2 0x8DB JUMPI PUSH1 0x40 MLOAD PUSH32 0x8C379A000000000000000000000000000000000000000000000000000000000 DUP2 MSTORE PUSH1 0x4 ADD PUSH2 0x8D2 SWAP1 PUSH2 0x121C JUMP JUMPDEST PUSH1 0x40 MLOAD DUP1 SWAP2 SUB SWAP1 REVERT JUMPDEST DUP1 PUSH1 0x3 ADD PUSH1 0x0 DUP2 SLOAD DUP1 SWAP3 SWAP2 SWAP1 PUSH2 0x8F0 SWAP1 PUSH2 0x111B JUMP JUMPDEST SWAP2 SWAP1 POP SSTORE POP PUSH1 0x1 DUP2 PUSH1 0x4 ADD PUSH1 0x0 CALLER PUSH20 0xFFFFFFFFFFFFFFFFFFFFFFFFFFFFFFFFFFFFFFFF AND PUSH20 0xFFFFFFFFFFFFFFFFFFFFFFFFFFFFFFFFFFFFFFFF AND DUP2 MSTORE PUSH1 0x20 ADD SWAP1 DUP2 MSTORE PUSH1 0x20 ADD PUSH1 0x0 KECCAK256 PUSH1 0x0 PUSH2 0x100 EXP DUP2 SLOAD DUP2 PUSH1 0xFF MUL NOT AND SWAP1 DUP4 ISZERO ISZERO MUL OR SWAP1 SSTORE POP POP POP JUMP JUMPDEST DUP3 DUP1 SLOAD PUSH2 0x95F SWAP1 PUSH2 0x107D JUMP JUMPDEST SWAP1 PUSH1 0x0 MSTORE PUSH1 0x20 PUSH1 0x0 KECCAK256 SWAP1 PUSH1 0x1F ADD PUSH1 0x20 SWAP1 DIV DUP2 ADD SWAP3 DUP3 PUSH2 0x981 JUMPI PUSH1 0x0 DUP6 SSTORE PUSH2 0x9C8 JUMP JUMPDEST DUP3 PUSH1 0x1F LT PUSH2 0x99A JUMPI DUP1 MLOAD PUSH1 0xFF NOT AND DUP4 DUP1 ADD OR DUP6 SSTORE PUSH2 0x9C8 JUMP JUMPDEST DUP3 DUP1 ADD PUSH1 0x1 ADD DUP6 SSTORE DUP3 ISZERO PUSH2 0x9C8 JUMPI SWAP2 DUP3 ADD JUMPDEST DUP3 DUP2 GT ISZERO PUSH2 0x9C7 JUMPI DUP3 MLOAD DUP3 SSTORE SWAP2 PUSH1 0x20 ADD SWAP2 SWAP1 PUSH1 0x1 ADD SWAP1 PUSH2 0x9AC JUMP JUMPDEST JUMPDEST POP SWAP1 POP PUSH2 0x9D5 SWAP2 SWAP1 PUSH2 0x9D9 JUMP JUMPDEST POP SWAP1 JUMP JUMPDEST JUMPDEST DUP1 DUP3 GT ISZERO PUSH2 0x9F2 JUMPI PUSH1 0x0 DUP2 PUSH1 0x0 SWAP1 SSTORE POP PUSH1 0x1 ADD PUSH2 0x9DA JUMP JUMPDEST POP SWAP1 JUMP JUMPDEST PUSH1 0x0 PUSH1 0x40 MLOAD SWAP1 POP SWAP1 JUMP JUMPDEST PUSH1 0x0 DUP1 REVERT JUMPDEST PUSH1 0x0 DUP1 REVERT JUMPDEST PUSH1 0x0 DUP2 SWAP1 POP SWAP2 SWAP1 POP JUMP JUMPDEST PUSH2 0xA1D DUP2 PUSH2 0xA0A JUMP JUMPDEST DUP2 EQ PUSH2 0xA28 JUMPI PUSH1 0x0 DUP1 REVERT JUMPDEST POP JUMP JUMPDEST PUSH1 0x0 DUP2 CALLDATALOAD SWAP1 POP PUSH2 0xA3A DUP2 PUSH2 0xA14 JUMP JUMPDEST SWAP3 SWAP2 POP POP JUMP JUMPDEST PUSH1 0x0 PUSH1 0x20 DUP3 DUP5 SUB SLT ISZERO PUSH2 0xA56 JUMPI PUSH2 0xA55 PUSH2 0xA00 JUMP JUMPDEST JUMPDEST PUSH1 0x0 PUSH2 0xA64 DUP5 DUP3 DUP6 ADD PUSH2 0xA2B JUMP JUMPDEST SWAP2 POP POP SWAP3 SWAP2 POP POP JUMP JUMPDEST PUSH1 0x0 PUSH20 0xFFFFFFFFFFFFFFFFFFFFFFFFFFFFFFFFFFFFFFFF DUP3 AND SWAP1 POP SWAP2 SWAP1 POP JUMP JUMPDEST PUSH1 0x0 PUSH2 0xA98 DUP3 PUSH2 0xA6D JUMP JUMPDEST SWAP1 POP SWAP2 SWAP1 POP JUMP JUMPDEST PUSH2 0xAA8 DUP2 PUSH2 0xA8D JUMP JUMPDEST DUP2 EQ PUSH2 0xAB3 JUMPI PUSH1 0x0 DUP1 REVERT JUMPDEST POP JUMP JUMPDEST PUSH1 0x0 DUP2 CALLDATALOAD SWAP1 POP PUSH2 0xAC5 DUP2 PUSH2 0xA9F JUMP JUMPDEST SWAP3 SWAP2 POP POP JUMP JUMPDEST PUSH1 0x0 PUSH1 0x20 DUP3 DUP5 SUB SLT ISZERO PUSH2 0xAE1 JUMPI PUSH2 0xAE0 PUSH2 0xA00 JUMP JUMPDEST JUMPDEST PUSH1 0x0 PUSH2 0xAEF DUP5 DUP3 DUP6 ADD PUSH2 0xAB6 JUMP JUMPDEST SWAP2 POP POP SWAP3 SWAP2 POP POP JUMP JUMPDEST PUSH1 0x0 DUP2 ISZERO ISZERO SWAP1 POP SWAP2 SWAP1 POP JUMP JUMPDEST PUSH2 0xB0D DUP2 PUSH2 0xAF8 JUMP JUMPDEST DUP3 MSTORE POP POP JUMP JUMPDEST PUSH1 0x0 PUSH1 0x20 DUP3 ADD SWAP1 POP PUSH2 0xB28 PUSH1 0x0 DUP4 ADD DUP5 PUSH2 0xB04 JUMP JUMPDEST SWAP3 SWAP2 POP POP JUMP JUMPDEST PUSH2 0xB37 DUP2 PUSH2 0xA0A JUMP JUMPDEST DUP3 MSTORE POP POP JUMP JUMPDEST PUSH1 0x0 PUSH1 0x20 DUP3 ADD SWAP1 POP PUSH2 0xB52 PUSH1 0x0 DUP4 ADD DUP5 PUSH2 0xB2E JUMP JUMPDEST SWAP3 SWAP2 POP POP JUMP JUMPDEST PUSH2 0xB61 DUP2 PUSH2 0xA8D JUMP JUMPDEST DUP3 MSTORE POP POP JUMP JUMPDEST PUSH1 0x0 PUSH1 0xA0 DUP3 ADD SWAP1 POP PUSH2 0xB7C PUSH1 0x0 DUP4 ADD DUP9 PUSH2 0xB2E JUMP JUMPDEST PUSH2 0xB89 PUSH1 0x20 DUP4 ADD DUP8 PUSH2 0xB2E JUMP JUMPDEST PUSH2 0xB96 PUSH1 0x40 DUP4 ADD DUP7 PUSH2 0xB2E JUMP JUMPDEST PUSH2 0xBA3 PUSH1 0x60 DUP4 ADD DUP6 PUSH2 0xB2E JUMP JUMPDEST PUSH2 0xBB0 PUSH1 0x80 DUP4 ADD DUP5 PUSH2 0xB58 JUMP JUMPDEST SWAP7 SWAP6 POP POP POP POP POP POP JUMP JUMPDEST PUSH1 0x0 PUSH1 0x20 DUP3 ADD SWAP1 POP PUSH2 0xBCF PUSH1 0x0 DUP4 ADD DUP5 PUSH2 0xB58 JUMP JUMPDEST SWAP3 SWAP2 POP POP JUMP JUMPDEST PUSH1 0x0 DUP2 MLOAD SWAP1 POP SWAP2 SWAP1 POP JUMP JUMPDEST PUSH1 0x0 DUP3 DUP3 MSTORE PUSH1 0x20 DUP3 ADD SWAP1 POP SWAP3 SWAP2 POP POP JUMP JUMPDEST PUSH1 0x0 JUMPDEST DUP4 DUP2 LT ISZERO PUSH2 0xC0F JUMPI DUP1 DUP3 ADD MLOAD DUP2 DUP5 ADD MSTORE PUSH1 0x20 DUP2 ADD SWAP1 POP PUSH2 0xBF4 JUMP JUMPDEST DUP4 DUP2 GT ISZERO PUSH2 0xC1E JUMPI PUSH1 0x0 DUP5 DUP5 ADD MSTORE JUMPDEST POP POP POP POP JUMP JUMPDEST PUSH1 0x0 PUSH1 0x1F NOT PUSH1 0x1F DUP4 ADD AND SWAP1 POP SWAP2 SWAP1 POP JUMP JUMPDEST PUSH1 0x0 PUSH2 0xC40 DUP3 PUSH2 0xBD5 JUMP JUMPDEST PUSH2 0xC4A DUP2 DUP6 PUSH2 0xBE0 JUMP JUMPDEST SWAP4 POP PUSH2 0xC5A DUP2 DUP6 PUSH1 0x20 DUP7 ADD PUSH2 0xBF1 JUMP JUMPDEST PUSH2 0xC63 DUP2 PUSH2 0xC24 JUMP JUMPDEST DUP5 ADD SWAP2 POP POP SWAP3 SWAP2 POP POP JUMP JUMPDEST PUSH1 0x0 PUSH1 0xA0 DUP3 ADD SWAP1 POP DUP2 DUP2 SUB PUSH1 0x0 DUP4 ADD MSTORE PUSH2 0xC88 DUP2 DUP9 PUSH2 0xC35 JUMP JUMPDEST SWAP1 POP PUSH2 0xC97 PUSH1 0x20 DUP4 ADD DUP8 PUSH2 0xB2E JUMP JUMPDEST PUSH2 0xCA4 PUSH1 0x40 DUP4 ADD DUP7 PUSH2 0xB58 JUMP JUMPDEST PUSH2 0xCB1 PUSH1 0x60 DUP4 ADD DUP6 PUSH2 0xB04 JUMP JUMPDEST PUSH2 0xCBE PUSH1 0x80 DUP4 ADD DUP5 PUSH2 0xB2E JUMP JUMPDEST SWAP7 SWAP6 POP POP POP POP POP POP JUMP JUMPDEST PUSH1 0x0 DUP1 REVERT JUMPDEST PUSH1 0x0 DUP1 REVERT JUMPDEST PUSH32 0x4E487B7100000000000000000000000000000000000000000000000000000000 PUSH1 0x0 MSTORE PUSH1 0x41 PUSH1 0x4 MSTORE PUSH1 0x24 PUSH1 0x0 REVERT JUMPDEST PUSH2 0xD0A DUP3 PUSH2 0xC24 JUMP JUMPDEST DUP2 ADD DUP2 DUP2 LT PUSH8 0xFFFFFFFFFFFFFFFF DUP3 GT OR ISZERO PUSH2 0xD29 JUMPI PUSH2 0xD28 PUSH2 0xCD2 JUMP JUMPDEST JUMPDEST DUP1 PUSH1 0x40 MSTORE POP POP POP JUMP JUMPDEST PUSH1 0x0 PUSH2 0xD3C PUSH2 0x9F6 JUMP JUMPDEST SWAP1 POP PUSH2 0xD48 DUP3 DUP3 PUSH2 0xD01 JUMP JUMPDEST SWAP2 SWAP1 POP JUMP JUMPDEST PUSH1 0x0 PUSH8 0xFFFFFFFFFFFFFFFF DUP3 GT ISZERO PUSH2 0xD68 JUMPI PUSH2 0xD67 PUSH2 0xCD2 JUMP JUMPDEST JUMPDEST PUSH2 0xD71 DUP3 PUSH2 0xC24 JUMP JUMPDEST SWAP1 POP PUSH1 0x20 DUP2 ADD SWAP1 POP SWAP2 SWAP1 POP JUMP JUMPDEST DUP3 DUP2 DUP4 CALLDATACOPY PUSH1 0x0 DUP4 DUP4 ADD MSTORE POP POP POP JUMP JUMPDEST PUSH1 0x0 PUSH2 0xDA0 PUSH2 0xD9B DUP5 PUSH2 0xD4D JUMP JUMPDEST PUSH2 0xD32 JUMP JUMPDEST SWAP1 POP DUP3 DUP2 MSTORE PUSH1 0x20 DUP2 ADD DUP5 DUP5 DUP5 ADD GT ISZERO PUSH2 0xDBC JUMPI PUSH2 0xDBB PUSH2 0xCCD JUMP JUMPDEST JUMPDEST PUSH2 0xDC7 DUP5 DUP3 DUP6 PUSH2 0xD7E JUMP JUMPDEST POP SWAP4 SWAP3 POP POP POP JUMP JUMPDEST PUSH1 0x0 DUP3 PUSH1 0x1F DUP4 ADD SLT PUSH2 0xDE4 JUMPI PUSH2 0xDE3 PUSH2 0xCC8 JUMP JUMPDEST JUMPDEST DUP2 CALLDATALOAD PUSH2 0xDF4 DUP5 DUP3 PUSH1 0x20 DUP7 ADD PUSH2 0xD8D JUMP JUMPDEST SWAP2 POP POP SWAP3 SWAP2 POP POP JUMP JUMPDEST PUSH1 0x0 DUP1 PUSH1 0x0 PUSH1 0x60 DUP5 DUP7 SUB SLT ISZERO PUSH2 0xE16 JUMPI PUSH2 0xE15 PUSH2 0xA00 JUMP JUMPDEST JUMPDEST PUSH1 0x0 DUP5 ADD CALLDATALOAD PUSH8 0xFFFFFFFFFFFFFFFF DUP2 GT ISZERO PUSH2 0xE34 JUMPI PUSH2 0xE33 PUSH2 0xA05 JUMP JUMPDEST JUMPDEST PUSH2 0xE40 DUP7 DUP3 DUP8 ADD PUSH2 0xDCF JUMP JUMPDEST SWAP4 POP POP PUSH1 0x20 PUSH2 0xE51 DUP7 DUP3 DUP8 ADD PUSH2 0xA2B JUMP JUMPDEST SWAP3 POP POP PUSH1 0x40 PUSH2 0xE62 DUP7 DUP3 DUP8 ADD PUSH2 0xAB6 JUMP JUMPDEST SWAP2 POP POP SWAP3 POP SWAP3 POP SWAP3 JUMP JUMPDEST PUSH32 0x4E487B7100000000000000000000000000000000000000000000000000000000 PUSH1 0x0 MSTORE PUSH1 0x32 PUSH1 0x4 MSTORE PUSH1 0x24 PUSH1 0x0 REVERT JUMPDEST PUSH32 0x74686973207265717565737420697320616C72656164792066696E616C697A65 PUSH1 0x0 DUP3 ADD MSTORE PUSH32 0x6400000000000000000000000000000000000000000000000000000000000000 PUSH1 0x20 DUP3 ADD MSTORE POP JUMP JUMPDEST PUSH1 0x0 PUSH2 0xEF7 PUSH1 0x21 DUP4 PUSH2 0xBE0 JUMP JUMPDEST SWAP2 POP PUSH2 0xF02 DUP3 PUSH2 0xE9B JUMP JUMPDEST PUSH1 0x40 DUP3 ADD SWAP1 POP SWAP2 SWAP1 POP JUMP JUMPDEST PUSH1 0x0 PUSH1 0x20 DUP3 ADD SWAP1 POP DUP2 DUP2 SUB PUSH1 0x0 DUP4 ADD MSTORE PUSH2 0xF26 DUP2 PUSH2 0xEEA JUMP JUMPDEST SWAP1 POP SWAP2 SWAP1 POP JUMP JUMPDEST PUSH32 0x4E487B7100000000000000000000000000000000000000000000000000000000 PUSH1 0x0 MSTORE PUSH1 0x12 PUSH1 0x4 MSTORE PUSH1 0x24 PUSH1 0x0 REVERT JUMPDEST PUSH32 0x4E487B7100000000000000000000000000000000000000000000000000000000 PUSH1 0x0 MSTORE PUSH1 0x11 PUSH1 0x4 MSTORE PUSH1 0x24 PUSH1 0x0 REVERT JUMPDEST PUSH1 0x0 PUSH2 0xF96 DUP3 PUSH2 0xA0A JUMP JUMPDEST SWAP2 POP PUSH2 0xFA1 DUP4 PUSH2 0xA0A JUMP JUMPDEST SWAP3 POP DUP3 PUSH2 0xFB1 JUMPI PUSH2 0xFB0 PUSH2 0xF2D JUMP JUMPDEST JUMPDEST DUP3 DUP3 DIV SWAP1 POP SWAP3 SWAP2 POP POP JUMP JUMPDEST PUSH32 0x7265717565737420646F6573206E6F74206861766520656E6F75676820617070 PUSH1 0x0 DUP3 ADD MSTORE PUSH32 0x726F76616C730000000000000000000000000000000000000000000000000000 PUSH1 0x20 DUP3 ADD MSTORE POP JUMP JUMPDEST PUSH1 0x0 PUSH2 0x1018 PUSH1 0x26 DUP4 PUSH2 0xBE0 JUMP JUMPDEST SWAP2 POP PUSH2 0x1023 DUP3 PUSH2 0xFBC JUMP JUMPDEST PUSH1 0x40 DUP3 ADD SWAP1 POP SWAP2 SWAP1 POP JUMP JUMPDEST PUSH1 0x0 PUSH1 0x20 DUP3 ADD SWAP1 POP DUP2 DUP2 SUB PUSH1 0x0 DUP4 ADD MSTORE PUSH2 0x1047 DUP2 PUSH2 0x100B JUMP JUMPDEST SWAP1 POP SWAP2 SWAP1 POP JUMP JUMPDEST PUSH32 0x4E487B7100000000000000000000000000000000000000000000000000000000 PUSH1 0x0 MSTORE PUSH1 0x22 PUSH1 0x4 MSTORE PUSH1 0x24 PUSH1 0x0 REVERT JUMPDEST PUSH1 0x0 PUSH1 0x2 DUP3 DIV SWAP1 POP PUSH1 0x1 DUP3 AND DUP1 PUSH2 0x1095 JUMPI PUSH1 0x7F DUP3 AND SWAP2 POP JUMPDEST PUSH1 0x20 DUP3 LT DUP2 EQ ISZERO PUSH2 0x10A9 JUMPI PUSH2 0x10A8 PUSH2 0x104E JUMP JUMPDEST JUMPDEST POP SWAP2 SWAP1 POP JUMP JUMPDEST PUSH32 0x6D696E696D756D436F6E747269627574696F6E206E6F74206D65740000000000 PUSH1 0x0 DUP3 ADD MSTORE POP JUMP JUMPDEST PUSH1 0x0 PUSH2 0x10E5 PUSH1 0x1B DUP4 PUSH2 0xBE0 JUMP JUMPDEST SWAP2 POP PUSH2 0x10F0 DUP3 PUSH2 0x10AF JUMP JUMPDEST PUSH1 0x20 DUP3 ADD SWAP1 POP SWAP2 SWAP1 POP JUMP JUMPDEST PUSH1 0x0 PUSH1 0x20 DUP3 ADD SWAP1 POP DUP2 DUP2 SUB PUSH1 0x0 DUP4 ADD MSTORE PUSH2 0x1114 DUP2 PUSH2 0x10D8 JUMP JUMPDEST SWAP1 POP SWAP2 SWAP1 POP JUMP JUMPDEST PUSH1 0x0 PUSH2 0x1126 DUP3 PUSH2 0xA0A JUMP JUMPDEST SWAP2 POP PUSH32 0xFFFFFFFFFFFFFFFFFFFFFFFFFFFFFFFFFFFFFFFFFFFFFFFFFFFFFFFFFFFFFFFF DUP3 EQ ISZERO PUSH2 0x1159 JUMPI PUSH2 0x1158 PUSH2 0xF5C JUMP JUMPDEST JUMPDEST PUSH1 0x1 DUP3 ADD SWAP1 POP SWAP2 SWAP1 POP JUMP JUMPDEST PUSH32 0x73656E64657220646964206E6F7420646F6E6174650000000000000000000000 PUSH1 0x0 DUP3 ADD MSTORE POP JUMP JUMPDEST PUSH1 0x0 PUSH2 0x119A PUSH1 0x15 DUP4 PUSH2 0xBE0 JUMP JUMPDEST SWAP2 POP PUSH2 0x11A5 DUP3 PUSH2 0x1164 JUMP JUMPDEST PUSH1 0x20 DUP3 ADD SWAP1 POP SWAP2 SWAP1 POP JUMP JUMPDEST PUSH1 0x0 PUSH1 0x20 DUP3 ADD SWAP1 POP DUP2 DUP2 SUB PUSH1 0x0 DUP4 ADD MSTORE PUSH2 0x11C9 DUP2 PUSH2 0x118D JUMP JUMPDEST SWAP1 POP SWAP2 SWAP1 POP JUMP JUMPDEST PUSH32 0x73656E6465722068617320616C726561647920766F7465640000000000000000 PUSH1 0x0 DUP3 ADD MSTORE POP JUMP JUMPDEST PUSH1 0x0 PUSH2 0x1206 PUSH1 0x18 DUP4 PUSH2 0xBE0 JUMP JUMPDEST SWAP2 POP PUSH2 0x1211 DUP3 PUSH2 0x11D0 JUMP JUMPDEST PUSH1 0x20 DUP3 ADD SWAP1 POP SWAP2 SWAP1 POP JUMP JUMPDEST PUSH1 0x0 PUSH1 0x20 DUP3 ADD SWAP1 POP DUP2 DUP2 SUB PUSH1 0x0 DUP4 ADD MSTORE PUSH2 0x1235 DUP2 PUSH2 0x11F9 JUMP JUMPDEST SWAP1 POP SWAP2 SWAP1 POP JUMP INVALID LOG2 PUSH5 0x6970667358 0x22 SLT KECCAK256 PUSH13 0x36A0D411EC1242490A8AAD8B23 PUSH16 0x178201A395096D2481817558AAE9C136 PUSH21 0x64736F6C634300080B003300000000000000000000 "
    },
    "gasEstimates": {
      "creation": {
        "codeDepositCost": "944400",
        "executionCost": "infinite",
        "totalCost": "infinite"
      },
      "external": {
        "approveRequest(uint256)": "infinite",
        "approvers(address)": "2868",
        "approversCount()": "2451",
        "contribute()": "51046",
        "createRequest(string,uint256,address)": "infinite",
        "finalizeRequest(uint256)": "infinite",
        "getRequestCount()": "2490",
        "getSummary()": "infinite",
        "manager()": "2603",
        "minimumContribution()": "2495",
        "requests(uint256)": "infinite"
      }
    },
    "methodIdentifiers": {
      "approveRequest(uint256)": "d7d1bbdb",
      "approvers(address)": "0a144391",
      "approversCount()": "82fde093",
      "contribute()": "d7bb99ba",
      "createRequest(string,uint256,address)": "8a9cfd55",
      "finalizeRequest(uint256)": "03441006",
      "getRequestCount()": "3fad1834",
      "getSummary()": "4051ddac",
      "manager()": "481c6a75",
      "minimumContribution()": "937e09b1",
      "requests(uint256)": "81d12c58"
    }
  },
  "storageLayout": {
    "storage": [
      {
        "astId": 59,
        "contract": "Campaign.sol:Campaign",
        "label": "requests",
        "offset": 0,
        "slot": "0",
        "type": "t_array(t_struct(Request)55_storage)dyn_storage"
      },
      {
        "astId": 61,
        "contract": "Campaign.sol:Campaign",
        "label": "manager",
        "offset": 0,
        "slot": "1",
        "type": "t_address"
      },
      {
        "astId": 63,
        "contract": "Campaign.sol:Campaign",
        "label": "minimumContribution",
        "offset": 0,
        "slot": "2",
        "type": "t_uint256"
      },
      {
        "astId": 67,
        "contract": "Campaign.sol:Campaign",
        "label": "approvers",
        "offset": 0,
        "slot": "3",
        "type": "t_mapping(t_address,t_bool)"
      },
      {
        "astId": 69,
        "contract": "Campaign.sol:Campaign",
        "label": "approversCount",
        "offset": 0,
        "slot": "4",
        "type": "t_uint256"
      }
    ],
    "types": {
      "t_address": {
        "encoding": "inplace",
        "label": "address",
        "numberOfBytes": "20"
      },
      "t_array(t_struct(Request)55_storage)dyn_storage": {
        "base": "t_struct(Request)55_storage",
        "encoding": "dynamic_array",
        "label": "struct Campaign.Request[]",
        "numberOfBytes": "32"
      },
      "t_bool": {
        "encoding": "inplace",
        "label": "bool",
        "numberOfBytes": "1"
      },
      "t_mapping(t_address,t_bool)": {
        "encoding": "mapping",
        "key": "t_address",
        "label": "mapping(address => bool)",
        "numberOfBytes": "32",
        "value": "t_bool"
      },
      "t_string_storage": {
        "encoding": "bytes",
        "label": "string",
        "numberOfBytes": "32"
      },
      "t_struct(Request)55_storage": {
        "encoding": "inplace",
        "label": "struct Campaign.Request",
        "members": [
          {
            "astId": 42,
            "contract": "Campaign.sol:Campaign",
            "label": "description",
            "offset": 0,
            "slot": "0",
            "type": "t_string_storage"
          },
          {
            "astId": 44,
            "contract": "Campaign.sol:Campaign",
            "label": "value",
            "offset": 0,
            "slot": "1",
            "type": "t_uint256"
          },
          {
            "astId": 46,
            "contract": "Campaign.sol:Campaign",
            "label": "recipient",
            "offset": 0,
            "slot": "2",
            "type": "t_address"
          },
          {
            "astId": 48,
            "contract": "Campaign.sol:Campaign",
            "label": "complete",
            "offset": 20,
            "slot": "2",
            "type": "t_bool"
          },
          {
            "astId": 50,
            "contract": "Campaign.sol:Campaign",
            "label": "approvalsCount",
            "offset": 0,
            "slot": "3",
            "type": "t_uint256"
          },
          {
            "astId": 54,
            "contract": "Campaign.sol:Campaign",
            "label": "peopleApproved",
            "offset": 0,
            "slot": "4",
            "type": "t_mapping(t_address,t_bool)"
          }
        ],
        "numberOfBytes": "160"
      },
      "t_uint256": {
        "encoding": "inplace",
        "label": "uint256",
        "numberOfBytes": "32"
      }
    }
  },
  "userdoc": {
    "kind": "user",
    "methods": {},
    "version": 1
  }
}